:020000040000fa
:080000000002040000000000f2
:020000040000fa
:04000800cc03000025
:020000040000fa
:04000c00cc03000021
:020000040000fa
:04001000cc0300001d
:020000040000fa
:04001400cc03000019
:020000040000fa
:04001800cc03000015
:020000040000fa
:04001c00cc03000011
:020000040000fa
:04002000cc0300000d
:020000040000fa
:04002400cc03000009
:020000040000fa
:04002800cc03000005
:020000040000fa
:04002c00cc03000001
:020000040000fa
:04003000cc030000fd
:020000040000fa
:0400340002030000c3
:020000040000fa
:04003800cc030000f5
:020000040000fa
:04003c00cc030000f1
:020000040000fa
:04004000cc030000ed
:020000040000fa
:04004400cc030000e9
:020000040000fa
:04004800fa020000b8
:020000040000fa
:04004c00cc030000e1
:020000040000fa
:04005000cc030000dd
:020000040000fa
:04005400880300001d
:020000040000fa
:040058005e03000043
:020000040000fa
:04005c003a03000063
:020000040000fa
:04006000cc030000cd
:020000040000fa
:04006400cc030000c9
:020000040000fa
:04006800cc030000c5
:020000040000fa
:04006c00cc030000c1
:020000040000fa
:04007000cc030000bd
:020000040000fa
:04007400cc030000b9
:020000040000fa
:04007800cc030000b5
:020000040000fa
:04007c00cc030000b1
:020000040000fa
:04008000cc030000ad
:020000040000fa
:04008400cc030000a9
:020000040000fa
:04008800cc030000a5
:020000040000fa
:04008c00cc030000a1
:020000040000fa
:04009000cc0300009d
:020000040000fa
:040094002203000043
:020000040000fa
:04009800cc03000095
:020000040000fa
:04009c00cc03000091
:020000040000fa
:0400a000cc0300008d
:020000040000fa
:0400a400cc03000089
:020000040000fa
:0400a800cc03000085
:020000040000fa
:0400ac00cc03000081
:020000040000fa
:0400b000cc0300007d
:020000040000fa
:0400b400cc03000079
:020000040000fa
:0400b800cc03000075
:020000040000fa
:0400bc00cc03000071
:020000040000fa
:0400c000cc0300006d
:020000040000fa
:0400c400cc03000069
:020000040000fa
:0400c800cc03000065
:020000040000fa
:0400cc00cc03000061
:020000040000fa
:0400d000cc0300005d
:020000040000fa
:0400d400cc03000059
:020000040000fa
:0400d800cc03000055
:020000040000fa
:0400dc00cc03000051
:020000040000fa
:0400e000cc0300004d
:020000040000fa
:0400e400cc03000049
:020000040000fa
:0400e800cc03000045
:020000040000fa
:0400ec00cc03000041
:020000040000fa
:0400f000cc0300003d
:020000040000fa
:0400f400cc03000039
:020000040000fa
:0400f800cc03000035
:020000040000fa
:0400fc00cc03000031
:020000040000fa
:04010000cc0300002c
:020000040000fa
:04010400cc03000028
:020000040000fa
:04010800cc03000024
:020000040000fa
:04010c00cc03000020
:020000040000fa
:04011000cc0300001c
:020000040000fa
:04011400cc03000018
:020000040000fa
:04011800cc03000014
:020000040000fa
:04011c00cc03000010
:020000040000fa
:04012000cc0300000c
:020000040000fa
:04012400cc03000008
:020000040000fa
:04012800cc03000004
:020000040000fa
:04012c00cc03000000
:020000040000fa
:04013000cc030000fc
:020000040000fa
:04013400cc030000f8
:020000040000fa
:04013800cc030000f4
:020000040000fa
:04013c00cc030000f0
:020000040000fa
:04014000cc030000ec
:020000040000fa
:04014400cc030000e8
:020000040000fa
:04014800cc030000e4
:020000040000fa
:04014c00cc030000e0
:020000040000fa
:04015000cc030000dc
:020000040000fa
:04015400cc030000d8
:020000040000fa
:04015800cc030000d4
:020000040000fa
:04015c00cc030000d0
:020000040000fa
:04016000cc030000cc
:020000040000fa
:04016400cc030000c8
:020000040000fa
:04016800cc030000c4
:020000040000fa
:04016c00cc030000c0
:020000040000fa
:04017000cc030000bc
:020000040000fa
:04017400cc030000b8
:020000040000fa
:04017800cc030000b4
:020000040000fa
:04017c00cc030000b0
:020000040000fa
:04018000cc030000ac
:020000040000fa
:04018400cc030000a8
:020000040000fa
:04018800cc030000a4
:020000040000fa
:04018c00cc030000a0
:020000040000fa
:04019000cc0300009c
:020000040000fa
:04019400cc03000098
:020000040000fa
:04019800cc03000094
:020000040000fa
:04019c00cc03000090
:020000040000fa
:0401a000cc0300008c
:020000040000fa
:0401a400cc03000088
:020000040000fa
:0401a800cc03000084
:020000040000fa
:0401ac00cc03000080
:020000040000fa
:0401b000cc0300007c
:020000040000fa
:0401b400cc03000078
:020000040000fa
:0401b800cc03000074
:020000040000fa
:0401bc00cc03000070
:020000040000fa
:0401c000cc0300006c
:020000040000fa
:0401c400cc03000068
:020000040000fa
:0401c800cc03000064
:020000040000fa
:0401cc00cc03000060
:020000040000fa
:0401d000cc0300005c
:020000040000fa
:0401d400cc03000058
:020000040000fa
:0401d800cc03000054
:020000040000fa
:0401dc00cc03000050
:020000040000fa
:0401e000cc0300004c
:020000040000fa
:0401e400cc03000048
:020000040000fa
:0401e800cc03000044
:020000040000fa
:0401ec00cc03000040
:020000040000fa
:0401f000cc0300003c
:020000040000fa
:0401f400cc03000038
:020000040000fa
:0401f800cc03000034
:020000040000fa
:0401fc00cc03000030
:020000040000fa
:04020000cc0300002b
:020000040000fa
:04020400cc03000027
:020000040000fa
:04020800cc03000023
:020000040000fa
:04020c00cc0300001f
:020000040000fa
:04021000cc0300001b
:020000040000fa
:04021400cc03000017
:020000040000fa
:04021800cc03000013
:020000040000fa
:04021c00cc0300000f
:020000040000fa
:04022000cc0300000b
:020000040000fa
:04022400cc03000007
:020000040000fa
:04022800cc03000003
:020000040000fa
:04022c00cc030000ff
:020000040000fa
:04023000cc030000fb
:020000040000fa
:04023400cc030000f7
:020000040000fa
:04023800cc030000f3
:020000040000fa
:04023c00cc030000ef
:020000040000fa
:04024000cc030000eb
:020000040000fa
:04024400cc030000e7
:020000040000fa
:04024800cc030000e3
:020000040000fa
:04024c00cc030000df
:020000040000fa
:04025000cc030000db
:020000040000fa
:04025400cc030000d7
:020000040000fa
:04025800cc030000d3
:020000040000fa
:04025c00cc030000cf
:020000040000fa
:04026000cc030000cb
:020000040000fa
:04026400cc030000c7
:020000040000fa
:04026800cc030000c3
:020000040000fa
:04026c00cc030000bf
:020000040000fa
:04027000cc030000bb
:020000040000fa
:04027400cc030000b7
:020000040000fa
:04027800cc030000b3
:020000040000fa
:04027c00cc030000af
:020000040000fa
:04028000cc030000ab
:020000040000fa
:100400000f1521000eff2c000e01880000000000d7
:10041000000020000000e000020032000001200087
:100420002002880014000700dd0007000000e00043
:1004300003003a0060a02100010020000200370004
:100440000000200001002000810f70000100320038
:100450000f000700000020000000e0000200320052
:10046000000002000000000008150200000000006b
:100470000040da000000fe00200020000000e00044
:1004800002003200100020009001880000000600e9
:10049000a1028800800478000000eb001f003700f4
:1004a000e284440054a0b4009905ba00e2844400f8
:1004b00054a0b4009906ba00e284440054a0b400e9
:1004c0000006eb00476fde00fd07b200ae018800ba
:1004d000636ce10003003a000ad801000000eb0061
:1004e0000e003700606ce10008003a00004deb00a0
:1004f0000a05e800020039003420ec000af0a000f0
:100500008b05e900f9ff3e00040037006168e10057
:10051000010032000086eb000b00070019c7ba008b
:100520000e04e0001905ba0003003a000a00e000da
:10053000dbff3a0000000600fe07b200ae028800b2
:100540008a047800f5ff37000cd0a300e20f4d00bd
:100550001c003b0089027800354dba000a05e8000e
:10056000020039003420ec000af0a0008b05e900fd
:100570000f003200254dba000a05e80002003900dc
:100580003420ec000af0a0008b05e90008003200de
:100590000c00e0000600320015cdba000a05e800a4
:1005a000020039003420ec000af0a0008b05e900bd
:1005b0008984e80054a0b4000b00e000e2ff3a0098
:1005c000000006009902ba00055d78008b05e9007d
:1005d000f7ff3200c82ade00055d78008b05e900d0
:1005e000f3ff32000c00e000f1ff320019ddba0029
:1005f000eeff37000000fa000108a9000080fa00b1
:10060000004006003600f800809fbe00829fbe00ba
:10061000849fbe00869fbe000000fa000068a9000b
:1006200022070700c00a07000080fa004f03be003f
:100630004f02be004f01be004f00be003600f90061
:1006400000400600809fbe000000fa000368a90079
:10065000108080002180800061004000e080480020
:1006600010808800218088000080fa004f00be00c2
:1006700000400600801f78000000fa0001a8a900d1
:1006800030188000308a880040188000408a880036
:1006900020188000508a880010188000608a880026
:1006a00000188000708a880010c0b3001df0b700e9
:1006b0000080fa004f007800004006003600f80085
:1006c000809fbe00829fbe00849fbe00869fbe00aa
:1006d0000000fa000188a90071808000608080001d
:1006e000808f500002003200310a070001003700fd
:1006f0001070ef000080fa004f03be004f02be00f2
:100700004f01be004f00be003600f9000040060059
:100710003600f800809fbe00829fbe00849fbe000e
:10072000869fbe000000fa000168a9001011800039
:10073000640060000000e000010032002242a900d5
:1007400010118000620060000000e000060032002e
:100750002222a900050037003011800000407800f7
:10076000810a07000100370000000000101180001e
:10077000610060000000e000f7ff3a000080fa002e
:100780004f03be004f02be004f01be004f00be002f
:100790003600f900004006000040da000000fe00cc
:1007a0000000050014002000aa033700f4ff2f000a
:1007b000a80337000001be003c0007000470a7003a
:1007c00003f0a1006509b100160032000d003500ec
:1007d0006828e10006003500f0ff2f00f1ff270038
:1007e0000300e00013003b000100280000000500aa
:1007f00000004000818048008502e900fcff3a00cb
:1008000008003700f88f420002003c008000eb0037
:10081000000005008100d1000080d3008502e800bf
:10082000fcff3a000300e00002003b006000100003
:10083000e0801800000006000001be001b00070059
:100840000470a70003f0a10003f8a30013003a000e
:100850006509b10010003200090035006928e10087
:1008600002003500010028000000050000004000e3
:10087000818048008502e900fcff3a000000060084
:10088000f88f4200050035008100d1000080d300c0
:100890008502e800fcff3a00000006008000eb0043
:1008a000000005006011b80085033700c70ade00ac
:1008b000f107b200f50fb20008003200e1cf4200ac
:1008c000020032000170a00024000500810f7000ba
:1008d000010032000408050044000500810f70008b
:1008e00002003a00140005008502e9000000400003
:1008f00081c04800fcff3b000170a00024000500ff
:1009000007f82700078361000638e10004003a0079
:10091000f7072000878361008703710001003a0018
:1009200003f0a200889fbe008a9fbe008c9fbe007d
:10093000470ade000480a100c71ade000580a1007e
:10094000070028000785600087856100f70f2000f9
:100950000720e1009e0032000728e1009c003200e1
:10096000010678000400e000b4003200f707200020
:10097000878060000170a0000500e000c000320028
:10098000f7072000878161000370a0000506520070
:100990000f003a000b50e1000b0032000308e100a9
:1009a00002003a000200e1007e0032000204500022
:1009b00083845800040031000001fd008101fd0026
:1009c0008402fd008a05fd006044b8002100370064
:1009d0000520e10005003d000001fd008101fd0052
:1009e0008402fd008a05fd00050652007a60e100e0
:1009f000050035000170a1004722dd0084807000f1
:100a00008a807000630037006044b800ef0266001f
:100a100007ff2f00070666000500e000060034000f
:100a2000f08312008714dd000511de00071bdd00d6
:100a3000060171008519de007060e10005003500d7
:100a40000904780082047800030178008001eb003b
:100a5000700656000b50e10003003a00020040000f
:100a6000838048000400370060041400e0841c0008
:100a700002005800838058000188a300060032005d
:100a80008100d1000080d3008984d3000884d30082
:100a90000402e800270037000178a30025003a008f
:100aa0000100e000030032008186cf006986560015
:100ab0000a0037008c0020000000e00004003a002b
:100ac00009007800880478000004eb0070025200ee
:100ad0008086cf000d0646000c06e9007060e1003c
:100ae000060035008000780009007800880478004e
:100af0000004eb0070065600700252000c00e0008b
:100b00000c0034008c08dd00f00316000703de0043
:100b1000868070000c00dd00074bde0006007000d0
:100b20008c4cdd000743de00868474000c44dd003d
:100b30000c0252006120e1002000350061016000dc
:100b40000700280087816400f7ff2700878364007f
:100b5000070374000300e000060032008203730004
:100b6000040032000000e800e08048000188a30093
:100b70000e003a00f70f20000720e1004a003d0078
:100b80000170a1004722dd00810072008a807000a0
:100b90000000be004f06be004f05be004f04be0061
:100ba000000006006000b800faff37008100d100a5
:100bb0000080d3000402e800eeff37000401780053
:100bc00089017400a10107008a807000f1ff3700dd
:100bd000f7010700070278000001fd008101fd0018
:100be000f301070087027800850372000778a300ed
:100bf000040032000001fd008101fd000602070033
:100c0000e4ff3700850362000768a3000800320094
:100c10000b50e10003003200f0ff2f00f1ff27002e
:100c2000dcff37000001fd008101fd00d9ff370026
:100c30000468a300d7ff3200faff3700f8ff27004f
:100c4000888360000b003a000000e00009003a00d1
:100c50008303640082837300020032000200be003e
:100c6000ccff37000b50e100ceff3a000200be007f
:100c7000c8ff370014002000810064003eff3700e9
:100c8000f8ff27008883610004003a000200e000ba
:100c900002003a008c007800beff370015002000eb
:100ca0008301640039ff370001f8270000002000ad
:100cb00081007500b7ff3700889fbe008a9fbe0085
:100cc0008c9fbe001b0020000202be00058668004b
:100cd00006002800060666004709de00f20fb20093
:100ce000820032000243e80080003200c729de00a3
:100cf000f30fb2007d0032000343e8007b003200b6
:100d0000f107b2000170a000f507b2000570a00065
:100d1000c708dd004903de00868070004700dd0063
:100d2000c72add004923de00868272004722dd00eb
:100d3000030551000403500085835800030031006f
:100d400000004000818048000a05e9008c1f7800ff
:100d50008a9fbe00040050008580580004024200b3
:100d600085824a0000004000818048000005eb00b9
:100d70000004be006033b8000406be000d48e10068
:100d800056003100110009004dccd8000c01b8000c
:100d90000d02b8008481410060824a0082835300c2
:100da00003045c0084845c0060055d000a00e000d0
:100db00025003a00800578000d40e100490031002f
:100dc0008800780007007800110009004d88d800dd
:100dd0000c01b8000d02b8008481410060824a0015
:100de0006003110083835b0004045c00e0845c000a
:100df0000900e00021003a004f01be000300e000be
:100e00002b003200e3016000070673008c81710043
:100e100001003200640070004200de004e5edd0022
:100e20000c007000c258de0001e0a0008301070042
:100e3000cf017800818071004f06be004f05be00d3
:100e40004f04be00000006008c8343000d044c00dc
:100e5000e0844c0060054d000000e9000a00e0005d
:100e6000d4ff32008c8343000d044c00e0844c001e
:100e700060054d000000e900ceff37000c03430081
:100e80008d834b0060044c00e0844c000000e900be
:100e90000900e000d8ff32000c0343008d834b00b3
:100ea00060044c00e0844c000000e900d2ff3700f1
:100eb0004200de004e5edd000c007000c258de0015
:100ec00001e0a000cf0178000300e000daff32006b
:100ed00060001000e0801800d7ff3700f0ff2f00ff
:100ee000aaff3700f0ff2f00b9ff37000404be004f
:100ef0002f010700870678000004fd008104fd0033
:100f00002b010700078366000678a3000300320068
:100f10000960a7000800be002c0037000d78a30070
:100f2000020032000800be00280037000778a30046
:100f300026003a0001f0a10009f0a1000668a30014
:100f400003003200f1ff2700f0ff2f00baff370047
:100f50000d68a300030032000800be008c80700002
:100f6000b5ff37000768a30007003a000648a30052
:100f700003003200f1ff2700f0ff2f00aeff370023
:100f80000d48a300030032006000b8008c807000a0
:100f9000a9ff37000748a3000400320001f827002a
:100fa000000020008c807000a3ff3700760107004e
:100fb0000004fd008104fd000205780072010700b5
:100fc0000802be008a01780059ff37000160a000c6
:100fd00012022000f280880097ff37000100e00035
:100fe000120032000500e00010003200889fbe00b1
:100ff0008a9fbe008c9fbe000006eb0001f8a30094
:101000000300320060001000e08018000cf0a00027
:1010100005f8a3000300320060021200e0821a000b
:101020000cf0a2008005eb0041ff37006000b80023
:10103000020005000383680007002800070363001f
:10104000470ade000480a100c71ade000580a10067
:10105000f70f20000720e100420032000728e100de
:1010600040003200889fbe008a9fbe008c1f78001f
:10107000f107b200f307b2000400e00064003200a0
:101080000170a0000500e000680032000370a000bd
:1010900085054200eb07b1000204b8000302b80066
:1010a0008484440060854a00020ab80084844400b5
:1010b0000a854a00030ab80004054500040033000d
:1010c0000804d0008984d2000a85d2008b05e9008b
:1010d0006158e1003d003500021020000901610067
:1010e0000308200089816100f707200087836400de
:1010f00008867300c84cde00c853dd008784740086
:101100004855de000300e00006003200820376004e
:10111000040032008904e80060054d000a88a3003d
:101120000c003a00f70f20000758e10044003d0092
:101130000a70a100c75ddd000a8575008a00730092
:10114000090078004f0678004f05be004f04be002e
:10115000000006000a05d1008984d3008b05e80051
:10116000f0ff3700881f7800060478009000070021
:10117000070278000001fd008101fd008c000700de
:1011800087027800850372000778a300050032000b
:101190000001fd008101fd009f0007004f04780061
:1011a00000000600850372000748a3000300320018
:1011b000f0ff2f00f1ff2700f8ff370000002000ac
:1011c00001f8270088807000f4ff3700880178005c
:1011d0004848dd00808171004848de00c850dd00cd
:1011e00001007000c850de00060478000b01780092
:1011f0001600070088807000d2ff37000500e0006d
:1012000005003200170020003a0007009dff37005c
:1012100081037000f9ff3a00860078004f067800dd
:101220004f05be004f04be0000000500830371009f
:10123000f9ff3200270020002e00070094ff37003e
:1012400001f8270086807000f4ff37000100e000fd
:1012500026003200610111007810e10023003c00fb
:101260006022b8007010e1000400350080027800b0
:10127000010078008000eb00700151000200e000e6
:101280000900340070031100062add00822ade0006
:101290008603dd00878272000200de00860bdd001f
:1012a000070070008208de0084817100f4ff2700cf
:1012b000048262008481710004002800848262003c
:1012c0006102600005f0a6000000060004827100c3
:1012d000070032000000e800e0804800000006003f
:1012e0000002be006000b800efff37006000b800e9
:1012f00000000600889fbe000004eb006138e1009a
:1013000016003a000100e00008003a00c800de00c4
:101310004800dd00880020000100e00003003a00e2
:10132000c800de004800dd00680444008184cf006e
:10133000e9845400060034008908dd00f0831400bd
:101340008703de00878070000900dd000904440087
:10135000610214004f04be00000006000300e0001c
:1013600008003a00c811de004811dd0088002000a6
:101370000300e00003003a00c811de004811dd0060
:10138000680444008384cf00e984540006003400dc
:101390008919dd00f08314008713de008781710056
:1013a0000911dd0009044400e1021400e9ff3700df
:1013b0002700200001f0a70017002000470bde00e7
:1013c000f60fb200040032000643e8000a003200c3
:1013d0004702b3000000060001037800f607b200e0
:1013e0000603700002003a000703b3000000060085
:1013f0008702b3000000060001037800f607b20080
:1014000006037000020032000770a0000000060012
:101410000760a000000006000478a300040032006a
:101420000578a300030032000168a30001003a0020
:101430000200be000160a0000000060081017000f3
:10144000270032008002eb0001f8a3000300320005
:1014500060001000e080180015002000f407200054
:101460000202420020003400f703200087036000de
:101470000604200000036300020820000001610050
:101480004700de00c909dd0000807100c708de00ea
:101490000600e000080032008703710006003200f9
:1014a0001000b0000180b0000188a30002003200eb
:1014b000c108de000402e800f107b200f30f2000cb
:1014c0000320e10003003d004722dd00810072009f
:1014d0002900370001f827000000eb002600370044
:1014e0006000b80000000600680212007f20e100e2
:1014f000020034006000b8001f0037006011b8001f
:101500007020e100040035008001780001007800bf
:101510008000eb00700252000400e000090034007b
:10152000f00312000719dd008419de000703dd0057
:10153000868171000400de00070bdd0006007000ec
:101540008408de00f7ff27008383630087037100b0
:101550000600280003036300070032000700e000d4
:1015600003003a0061016000028173000200320052
:101570001000b0000180b0000500a60000000600c9
:1015800001f0a000000006004f0ade004709de005f
:10159000f107b200f20fb2000b003200f207b10007
:1015a0000170a000c708dd00c901de008380700063
:1015b0004700dd000400a6000000060060001000e7
:1015c000e080180000000600810f700001003a0062
:1015d000000006008182cf000500e00010003e0000
:1015e0008082cf00ee8242007028e10004003900c2
:1015f00007003e00800078000000eb000e0037007e
:10160000708312008600de000500dd000a0037004e
:10161000708352008600dd000000eb0006003700fa
:10162000e28252008508dd00708312000603de00ae
:10163000868070000500dd007507b0000501ea0036
:101640000400a6000000060060001000e080180002
:1016500000000600889fbe008a9fbe00841f78009d
:101660006c0007004f00780011003300f0ff2f00de
:10167000838f6c0006003b00040565000a00a7008c
:101680000800370009f0a60010002000080037000d
:10169000820f5400838f5c0003003900100020008b
:1016a00001003e000000200009f0a7000000ea0051
:1016b0004f05be004f04be000000e0000000060021
:1016c000889fbe008a9fbe000082700004027100e5
:1016d00004827100260032000004be000200be0039
:1016e0006011b8006b092000950220000182cf0034
:1016f0000a0039000541b1000082cf00070039001f
:101700000541b1000982cf00040039000541b10054
:101710000882cf00010039000541b10005425200a6
:10172000120032000a003b008281710061016400f6
:101730008100d1000080d3008984d3000884d300c5
:101740008b05e8000442e800f7ff3a000700370085
:101750000804440089844c0000004800818048004f
:101760008b05e9000442e900f9ff3a000300070095
:101770004f05be004f04be0000000600810020009f
:10178000618055000b003d000b00200061fe2f0022
:101790000100e1001d0034008281710061016400dc
:1017a0008904d1000884d3000000e800faff3a0061
:1017b00071002000610064000300700002006000fe
:1017c0000900320061044400e0844c000988a5004f
:1017d000050032008b05e8006808e10002003a00cd
:1017e0008904d1000884d300f20f20000258e100e0
:1017f00005003d00c75ddd00f907b2008980750076
:1018000008007800000006000bf827008b00780025
:10181000000005000004be0024fc07000003be0019
:101820000405be000200be0020fc0700844f7500c6
:0418300000000600ae
:020000040000fa
:101834000000fa0006d0bf000080fb00cf80de006d
:101844005201200003002000820f5000838f5800b3
:10185400cc003e0000060100150037001e003700d2
:1018640020003700300037003100370041003700d6
:10187400420037005200370053003700630037003e
:101884006400370074003700be003700bd00370025
:10189400bc003700bb0037007100370085003700fb
:1018a400a5003700b500370090003700a0003700ce
:1018b4000230ef000430ef000001eb006000b800dc
:1018c40020030700120020006000b8001d03070079
:1018d40010c0b30006f0b70020c0b30006f0b70094
:1018e400ac00370090808000a180800002002000be
:1018f400031a2c00cefd07000001eb0011030700c2
:1019040090808000a180800002002000031a24003f
:10191400c7fd0700120020000a03070030c0b3000f
:1019240006f0b7009b0037009c00070099003700c1
:1019340090808000a180800002002000031a2c0007
:10194400bbfd07000001eb00fe0207009080800051
:10195400a18080000200200003102c00b4fd0700c9
:1019640012002000f702070050c0b30006f0b700d1
:1019740088003700890007008600370090808000c7
:10198400a18080000200200003102400a8fd0700ad
:101994000001eb00eb02070090808000a180800032
:1019a40002002000031a2400a1fd070012002000f9
:1019b400e402070070c0b30006f0b70075003700fa
:1019c400760007007300370090808000a1808000bb
:1019d4000200200003172c0095fd07000001eb0016
:1019e400d802070090808000a180800002002000bf
:1019f40003172c008efd070012002000d1020700ff
:101a040090c0b30006f0b70062003700630007001f
:101a14006000370090808000a180800002002000d8
:101a24000317240082fd07000001eb00c502070034
:101a340090808000a1808000020020000317240011
:101a44007bfd070012002000be020700b0c0b300f7
:101a540006f0b7004f003700500007004d00370074
:101a640090808000a18080000200200003172400e1
:101a74006ffd07000001eb00b202070090808000b8
:101a8400a1808000020020000317240068fd0700e5
:101a940012002000ab02070010808000218080002b
:101aa400000078004080880010c1b30006f0b70041
:101ab400380037001280800023808000408080003e
:101ac4008000eb000001510081815900c012200008
:101ad40001002000800f5100818f59002c00360036
:101ae40020c0b30006f0b7002a00370090808000c1
:101af400a18080000200200003122c004cfd07008e
:101b04000001eb008f02070090808000a18080001c
:101b140002002000831c240045fd07001200200061
:101b24008802070050c1b30006f0b700190037005f
:101b34001a0007001700370090808000a180800001
:101b440002002000831c240039fd07000001eb0083
:101b54007c02070090808000a180800002002000a9
:101b640003122c0032fd070012002000750207004a
:101b740050c1b30006f0b7000600370007000700a5
:101b8400040037000670ef00000000000100370079
:101b9400000000000080fa00000006000000fa00c7
:101ba400881f7800b0898000c189800018c0b30004
:101bb4000200200003172400f9fa07000000e000e7
:101bc400010035000044eb000804e000030032008b
:101bd4000bd0bf00704040000bf0b700908980002c
:101be400a189800018c0b30002002000031924005a
:101bf400ebfa07000000e000010035000044eb00b0
:101c04000804e000030032000bd0bf00684040002d
:101c14000bf0b700d0898000e189800018c0b300c0
:101c240002002000031a2400ddfa07000000e0008f
:101c3400010035000044eb000804e000030032001a
:101c44000bd0bf00644040000bf0b700f089800067
:101c5400018a800018c0b300020020000319240088
:101c6400cffa07000000e000010035000044eb005b
:101c74000804e000030032000bd0bf0000c0e800fd
:101c84000bf0b700108a8000218a800018c0b300ce
:101c94000200200003172400c1fa07000000e0003e
:101ca400010035000044eb000804e00003003200aa
:101cb4000bd0bf000040e8000bf0b7009089800013
:101cc400a189800018c0b30002002000031f240073
:101cd400b5fa07000000e00001003d000044eb00fd
:101ce4000804e00031003200d0898000e1898000de
:101cf40018c0b30002002000031f2400aafa070042
:101d04000000e00001003d000044eb000804e00096
:101d140026003200f0898000018a800018c0b300d8
:101d240002002000031f24009ffa07000000e000c7
:101d340001003d000044eb000804e0001b003200f9
:101d4400b0898000c189800018c0b300020020005f
:101d54000317240094fa07000000e00001003d008e
:101d64000044eb000804e00010003200108a8000f8
:101d7400218a800018c0b300020020000317240049
:101d840089fa07000000e00001003d000044eb0078
:101d94000804e000050032003033230031fb230047
:101da40090808800a1808800040037000000200093
:101db40001f8230090808800a18088009089800029
:101dc400a189800018c0b300020020000310240081
:101dd40073fa07000000e000010034000044eb0047
:101de4000804e0002c003a00d0898000e1898000da
:101df40018c0b300020020000310240068fa070092
:101e04000000e000010034000044eb000804e0009e
:101e140021003a00f0898000018a800018c0b300d4
:101e240002002000031024005dfa07000000e00017
:101e3400010034000044eb000804e00016003a00fe
:101e4400b0898000c189800018c0b300020020005e
:101e5400030a240052fa07000000e00001003400e5
:101e64000044eb000804e0000b003a00108a8000f4
:101e7400218a800018c0b30002002000030a240055
:101e840047fa07000000e000010034000044eb00c2
:101e94000804e0000300320000c1b3000af0b700f8
:101ea400940037000bd0bf000080fb00cf80de0021
:101eb400f201200003002000820f5000838f58009d
:101ec40081003e00000601001f003700210037009a
:101ed400230037002500370027003700290037008a
:101ee4002b0037002d0037002f003700310037005a
:101ef400330037003500370037003700390037002a
:101f04003b0037003d0037003f00370041003700f9
:101f140043003700450037004700370049003700c9
:101f24004b0037004d0037004f0037005100370099
:101f34005300370055003700570037005900370069
:101f44005b0037005d00370020c0b3000af0b70023
:101f54005f00370020c1b3000af0b7005c0037000f
:101f640040c0b3000af0b7005900370040c0b300c6
:101f74000af0b7005600370000c1b3000af0b700fa
:101f84005300370080c0b3000af0b7005000370098
:101f940080c0b3000af0b7004d00370080c0b30022
:101fa4000af0b7004a00370060c0b3000af0b70077
:101fb40047003700a0c0b3000af0b7004400370060
:101fc40000c1b3000af0b7004100370000c1b300fc
:101fd4000af0b7003e003700a0c0b3000af0b70013
:101fe4003b00370000c1b3000af0b70038003700e7
:101ff40000c1b3000af0b7003500370080c0b30059
:102004000af0b7003200370040c1b3000af0b7004d
:102014002f00370000c1b3000af0b7002c003700ce
:1020240080c0b3000af0b7002900370080c0b300b5
:102034000af0b70026003700a0c0b3000af0b700ca
:102044002300370000c1b3000af0b70020003700b6
:1020540080c0b3000af0b7001d00370000c1b30010
:102064000af0b7001a00370060c0b3000af0b700e6
:102074001700370060c0b3000af0b700140037003f
:10208400a0c0b3000af0b7001100370000c1b300cc
:102094000af0b7000e003700a0c0b3000af0b70082
:1020a4000b00370000c1b3000af0b7000800370086
:1020b400a0c0b3000af0b7000500370000c1b300a8
:1020c4000af0b700020037000670ef0000000000bd
:1020d4000ad0bf008080fb0006d0bf000080fb0058
:1020e4000000e900808f5000020032000ad0bf00d7
:1020f40006f0b7004f0478000080fa0000000600e4
:102104000000fa001160800080ff2f000080600052
:102114001060880000fa20002060880023aca8002a
:10212400238ca80011618000f03f2f000080600024
:1021340000a0a00010618800300020002061880009
:10214400c3aca800c38ca80011668000f03f2f0028
:102154000080600000a0a00010668800300020000d
:102164002066880001eca8000080fa000000060048
:102174000600fa00881f7800008fbe006400470044
:10218400020878006400470010007800e10f500056
:102194001f003a0018c0b3006011b8001e00780098
:1021a4009e00900080f907000000e00001003d005f
:1021b4000044eb000804e0000400320023cca90032
:1021c40015eea80023eca8000300370023eca900b7
:1021d40015cea80023cca8001e0078009e00900015
:1021e400a402070030898800418988003089800072
:1021f4004189800002002000032224008cfb070098
:102204009c0207008bf90700000078003061880009
:1022140064004700100078000000e0001f003a004e
:1022240018c0b3006011b8001e0078009e00900032
:102234005df907000000e00001003d000044eb00f0
:102244000804e00004003200c3cca90024eea80076
:10225400c3eca80003003700c3eca90024cea800f7
:10226400c3cca8001e0078009e00900081020700e5
:102274007089880081898800708980008189800044
:10228400020020000322240069fb070079020700f2
:1022940068f9070000007800306688004f04780071
:1022a4000080fa00000006000000fa00889fbe00cb
:1022b4008a9fbe00748980008589800050898000cf
:1022c4006189800018c0b3000001be000400be0094
:1022d40033f907000000e000010035000044eb0082
:1022e4000804e0000e0032005889800069898000eb
:1022f4007a8980008b898000d08080008000eb0088
:1023040067f907000001be000a00be0084f9070057
:102314000801be008702070070898800818988004f
:1023240074898000858980005089800061898000db
:1023340018c0b3000001be000400be001af9070073
:102344000000e00001003c000044eb000804e00051
:102354000e00320058898000698980007a898000e3
:102364008b898000d08080008000eb004cf907004e
:102374000001be000a00be0060f907000801be00ab
:102384005202070070898800818988007089800062
:102394008189800018c0b3006011b80002f90700f9
:1023a4000000e00001003c000044eb000804e000f1
:1023b40004003200c3cca90024eea800c3eca8009a
:1023c40003003700c3eca90024cea800c3cca800a6
:1023d40070898000818980002602070002002000a5
:1023e4000322240012fb070012f907000000780002
:1023f4003066880034898000458980001089800017
:102404002189800018c0b3000001be000400be0092
:10241400e3f807000000e000010035000044eb0091
:102424000804e0000e003200188980002989800029
:102434003a8980004b898000d08080008000eb00c6
:1024440017f907000001be000a00be0034f90700b6
:102454000801be00370207003089880041898800de
:10246400348980004589800010898000218980009a
:1024740018c0b3000001be000400be00caf8070083
:102484000000e00001003c000044eb000804e00010
:102494000e00320018898000298980003a89800062
:1024a4004b898000d08080008000eb00fcf807009e
:1024b4000001be000a00be0010f907000801be00ba
:1024c4000202070030898800418988003089800031
:1024d4004189800018c0b3006011b800b2f8070049
:1024e4000000e00001003c000044eb000804e000b0
:1024f4000400320023cca90015eea80023eca800a8
:102504000300370023eca90015cea80023cca800b3
:102514003089800041898000d60107000200200034
:1025240003222400c2fa0700c2f807000000780062
:10253400306188004f05be004f04be000080fa00e1
:10254400000006000600fa00008fbe006400470089
:102554000208780064004700100078000000e000e2
:1025640004003a001e0178009e0190005289880000
:10257400638988006400470010007800e10f500070
:1025840004003a001e0178009e0190001289880020
:10259400238988000080fa00000006000000fa0089
:1025a40013e1a90011e1a9001061a8001021a900fc
:1025b40081088000f0fc2f00008060008008880003
:1025c4000a21ef000621ef00404c2000700888002b
:1025d40000402b00600888002142800080ff2f000b
:1025e400008060000000a000204288000108a900cb
:1025f4002108a80011e1a8000080fa0000000600ec
:102604000000fa0005e1a900000020008124240054
:10261400060007000421a9000068a9002068a8009a
:1026240005e1a8000080fa00000006000400fa009a
:10263400881f7800008fbe0021088000f0fc2f0066
:1026440000806000200888001e0178009e01900030
:102654000068290081c1240096f9070018c0b3005e
:1026640002f02f00f37724004ff807000000e00089
:1026740001003c000044eb000804e0005400320078
:1026840021088000f0fc2f00008060000040a000c2
:10269400200888001e0178009e019000006829002f
:1026a40081c1240083f907000200200003102400e4
:1026b40080f9070018c0b30002f02f00f37724005c
:1026c40039f807000000e00001003c000044eb0082
:1026d4000804e0003200320021088000f0fc2f00e2
:1026e400008060000050a000200888001e017800cf
:1026f4009e0190000068290081c124006df9070043
:1027040002002000032824006af9070018c0b3005f
:1027140002f02f00f377240023f807000000e00004
:1027240001003c000044eb000804e000100032000b
:1027340021088000000320000100700020088800a8
:102744001e0178009e0190000068290081c12400c8
:1027540058f90700020020000338240055f9070047
:1027640013f80700000078001008880020003700e4
:102774001e0178009e0190000068290081c1240098
:102784004cf90700020020000328240049f907003f
:1027940007f80700000078001008880014003700cc
:1027a4001e0178009e0190000068290081c1240068
:1027b40040f9070002002000031024003df907003f
:1027c400fbf70700000078001008880008003700b5
:1027d4001e0178009e0190000068290081c1240038
:1027e40034f90700f2f707000000780010088800a9
:1027f4004f0478000080fa00000006000000fa0090
:102804001fe1a90000002000a147240006000700e2
:102814001e21a9000368a9002368a8001fe1a800dd
:102824000080fa00000006000400fa00881f780007
:10283400008fbe00f1088000f0fc2f0000806000d3
:10284400f00888001e0178009e01900000682900ad
:1028540081c1240017f9070018c0b30002f02f004b
:10286400f3772400d0f707000000e00001003c00eb
:102874000044eb000804e00054003200f10880003a
:10288400f0fc2f00008060000040a000f0088800e9
:102894001e0178009e0190000068290081c1240077
:1028a40004f90700020020000310240001f90700c6
:1028b40018c0b30002f02f00f3772400baf7070022
:1028c4000000e00001003c000044eb000804e000cc
:1028d40032003200f1088000f0fc2f00008060001c
:1028e4000050a000f00888001e0178009e019000ae
:1028f4000068290081c12400eef8070002002000ce
:1029040003282400ebf8070018c0b30002f02f00de
:10291400f3772400a4f707000000e00001003c0066
:102924000044eb000804e00010003200f1088000cd
:102934000003200001007000f00888001e017800e8
:102944009e0190000068290081c12400d9f8070085
:102954000200200003382400d6f8070094f707008b
:1029640000007800d0088800200037001e0178009d
:102974009e0190000068290081c12400cdf8070061
:102984000200200003282400caf8070088f7070083
:1029940000007800d0088800140037001e01780079
:1029a4009e0190000068290081c12400c1f807003d
:1029b4000200200003102400bef807007cf7070083
:1029c40000007800d0088800080037001e01780055
:1029d4009e0190000068290081c12400b5f8070019
:1029e40073f7070000007800d00888004f047800cf
:1029f4000080fa00000006000000fa000230ef0038
:102a04000430ef000080fa00000006001c00fa0009
:102a140052020700a3020700b9fd0700870107005f
:102a2400defe0700f6fe070074ff07001102070030
:102a34000000200081242400b0898800c189880016
:102a4400000020008124240090898800a189880046
:102a54000000200081242400d0898800e1898800b6
:102a64000000200081242400f0898800018a880065
:102a74000000200081242400108a8800218a880014
:102a84006000b80050898800618988006000b8003f
:102a94001089880021898800aa0107000004e00049
:102aa4005e003200ab010700a2010700800078003d
:102ab40064004700010878000000eb00000f780074
:102ac400170037001e00780000004000e4004700b3
:102ad4009100780000804000100078008000eb0036
:102ae4006ff70700323323003305240050f9070041
:102af40002002000035824006ef80700d2cc2c00fa
:102b0400c30424004af907001e0178004211dd00c5
:102b140066014100020147000089be001e0fe80063
:102b24001e007800e40f5000e6ff34006600470002
:102b340090009000100078000001be00000020000a
:102b4400812024005bf8070002002000030a24000f
:102b54006af70700b0898800c18988006a004700c5
:102b640090009000100078000001be0000002000da
:102b7400812024004ff8070002002000030a2400eb
:102b84005ef7070090898800a18988006e004700dd
:102b940090009000100078000001be0000002000aa
:102ba4008120240043f8070002002000030a2400c7
:102bb40052f70700d0898800e18988007200470035
:102bc40090009000100078000001be00000020007a
:102bd4008120240037f8070002002000030a2400a3
:102be40046f70700f0898800018a880076004700cc
:102bf40090009000100078000001be00000020004a
:102c0400812024002bf8070002002000030a24007e
:102c14003af70700108a8800218a880004fb07001d
:102c24008000eb000e80e800010878000b003700fc
:102c34005f010700fa004700804878007a004700e7
:102c440011002000980007000e80e80010007800b2
:102c54008000e8000e80e800010878007501070094
:102c64008e80e80091007800810f5000f0ff3c0056
:102c740089ff37000400fa00881f7800008fbe0027
:102c840018c0b3006011b8001e0078009e009000c8
:102c9400c5f607000000e00001003d000044eb0021
:102ca4000804e000030032001e0078009e0090003b
:102cb400030037001e0078009e00900001f0a2007f
:102cc4004f0478000080fa00000006000800fa00b3
:102cd400881f7800008fbe00640047000288be0091
:102ce40018c0b30064004700100178009001900000
:102cf4001e0078009e009000abf607000000e00084
:102d040001003c000044eb000804e0000300320032
:102d14001e0078009e009000030037006400470006
:102d240090009000100078004f0478000080fa00b2
:102d3400000006000800fa00881f7800008fbe001b
:102d4400640047000288be0018c0b3006400470056
:102d540010017800900190001e0078009e00900001
:102d64008ff607000000e000010035000044eb008e
:102d74000804e000030032001e0078009e0090006a
:102d840003003700640047009000900010007800b2
:102d94004f0478000080fa00000006000c00fa00de
:102da400881f7800008fbe00640047000288be00c0
:102db400680047000488be0018c0b30068004700dc
:102dc40010017800900190001e0078009e00900091
:102dd40075f607000000e00001003c000044eb0031
:102de4000804e0000400320068004700301f780047
:102df400201778000f00370018c0b30064004700a4
:102e040010017800900190001e0078009e00900050
:102e140063f607000000e000010035000044eb0009
:102e24000804e0000300320064004700301f78000b
:102e3400201778001e0078009e0090004f04780050
:102e44000080fa00000006000400fa00008fbe00b3
:102e5400b2fd2000930424001e0078009e00900020
:102e640094f70700020020004333240070f80700a1
:102e74000080fa00000006000400fa00008fbe0083
:102e8400b2fd2000930424001e0078009e009000f0
:102e940067f80700020020004333240085f7070089
:102ea4000080fa00000006000600fa000e81e80027
:102eb4000009780064004700010878000040eb0036
:102ec400004f780056000700e400470091007800a6
:102ed400810f5000130034000040eb00004f7800d5
:102ee400070037001e80fb008e80e8009100780008
:102ef40000804000104078000c0007001e4fe800de
:102f04001e80fb00e400470091007800810f500010
:102f1400f4ff35002e0007000004e00001003a0031
:102f2400220007000080fa00000006000200fa00f8
:102f3400004f780061808000000221000100400001
:102f44001e487800608080000000e80060808800ef
:102f540061808000f0072000808f50000100340061
:102f64000c30ef000080fa00000006000200fa00b6
:102f7400718080000002210001004000104f7800a1
:102f8400708080000000e8007080880071808000fc
:102f9400f0072000808f5000010034000e30ef0055
:102fa4001e4078000080fa00000006000200fa00cb
:102fb40010c0b30010f0b700ecff0700004f78001a
:102fc4001e80fb00201188000080fa00000006002b
:102fd4000000fa0010d0bf000080fa0000000600d4
:102fe4000200fa006180800070808000808f5000b1
:102ff400040035006180800070808000008f5000e4
:1030040004003700608080000008b00071808000f8
:10301400010f50001e0078000080fa000000060036
:103024000200fa00eeff070001082000008f5000a4
:103034001e0078000080fa00000006000000fa007c
:1030440021e3a9002143a80001198000f0cf2f003b
:1030540000806000001988002043a9000119800045
:10306400000e200001007000001988001119800072
:10307400f0ff210000806000101988002343a8009d
:1030840011198000f0cf2f00008060001019880013
:103094001119800030f82f00008060000040a0006b
:1030a400101988002203a9002223a90025e3a900fe
:1030b400f0c0b30024e3b70021198000f00f2e0004
:1030c4008080600000f0200001007000201988005a
:1030d4003303a9004feea8006f2ea8002f6ea8009e
:1030e4002e0ea8001e2ea80031e3a8003063a8000d
:1030f40030c3a8003163a8002e03a8004119800042
:1031040000fc2f00008060004019880028e3a9001b
:1031140001a8a90021a8a80021e3a8000080fa00c2
:10312400000006000000fa002023a8000080fa0036
:10313400000006000000fa00601421000080fa007c
:10314400000006000000fa001dd0bf000080fa0055
:10315400000006000000fa001d70ef000080fa0075
:10316400000006000200fa00004f78002a00070061
:103174000000e0000c003400b1808000000a21004f
:10318400010040001e487800b08080000000e80084
:10319400b0808800b1808000f0072000808f50004c
:1031a400010034001630ef000080fa000000060031
:1031b4000200fa00c1808000000a210001004000e2
:1031c400104f7800c08080000000e800c0808800b4
:1031d400c1808000f0072000808f5000010034007f
:1031e4001830ef001e4078000080fa00000006004e
:1031f4000000fa00b1808000c0808000808f500001
:103204000200320010c0b300010037000040eb00a0
:103214000080fa00000006000200fa000500070022
:1032240001082000008f50001e0078000080fa0082
:10323400000006000200fa00b1808000c080800017
:10324400808f500004003500b1808000c080800071
:10325400008f500004003700b08080000008b000e8
:10326400c1808000010f50001e0078000080fa0029
:10327400000006000000fa002002a90001118000ed
:1032840090ff2f00008060000011880020a2a90098
:103294002062a800500520004011880023a2a90044
:1032a40023e2a9000188a9002188a8001111800047
:1032b400f0f32f0000806000101188000168a9005d
:1032c4002168a80021e2a8002342a8000080fa0097
:1032d400000006000600fa000e81e80000097800ec
:1032e40064004700010878000040eb00004f7800bc
:1032f4000040eb00004f7800110037000000000090
:103304001111800000202000008060000000e00017
:10331400fbff3a000e80e8001000780010407800af
:103324000080fb00201188000e80e8001000780067
:103334008000e8000e80e800010878001e4fe800d5
:103344001e80fb00e400470091007800810f5000cc
:10335400eaff35000080fa00000006000000fa00d1
:10336400f0032000303a8800213a8000f0f32f0067
:1033740000806000203a8800213a800000fe2f007f
:10338400008060000000a000203a880012002000a5
:1033940080072000a10920003374200080497800b0
:1033a4008149780082497800103a80000001780051
:1033b4000200a00060042000710520002374200096
:1033c4008049780081497800824978000000000033
:1033d400113a800000002700808060000000210076
:1033e400808f5000faff3a0000000000113a80007c
:1033f40000022000008060000000e000fbff3200bb
:083404000080fa000000060040
:020000040000fa
:10340c0000100000060000008000000020110000e9
:10341c0026000000800000001a10000002000000ce
:10342c0080000000461100000a000000800000002f
:10343c001c100000020000008000000006100000bc
:10344c0006000000800000001210000004000000c4
:10345c0082000000000080003f00000020100000ef
:10346c0080000000800000000c100000060000002e
:10347c0080000000a0100000800000008000000010
:10348c001610000004000000800000001e10000058
:0c349c00020000008000000000000000a2
:020000040000fa
:1034a8000000fa000e2eef001e2eef002e2eef0069
:1034b8003e2eef004e2eef005e2eef006e2eef0038
:1034c800214ea90060cea90060eea90011cea90086
:1034d80011eea90020cea90020eea9002136800017
:1034e80000f82f00008060008001b30020368800bb
:1034f8001134800000fc2f00008060000000a00054
:0c350800103488000080fa00000006006b
:020000040000fa
:02000004000af0
:04afe000cfff00009f
:020000040000fa
:02000004000af0
:04afe400ffff00006b
:020000040000fa
:02000004000af0
:04afe8007fff0000e7
:020000040000fa
:02000004000af0
:04afec005fff000003
:020000040000fa
:02000004000af0
:04aff00038ff000026
:020000040000fa
:02000004000af0
:04aff400ffffff005c
:00000001FF
