:020000040000fa
:080000000002040000000000f2
:020000040000fa
:04000800620300008f
:020000040000fa
:04000c00620300008b
:020000040000fa
:040010006203000087
:020000040000fa
:040014006203000083
:020000040000fa
:04001800620300007f
:020000040000fa
:04001c00620300007b
:020000040000fa
:040020006203000077
:020000040000fa
:040024006203000073
:020000040000fa
:04002800620300006f
:020000040000fa
:04002c00620300006b
:020000040000fa
:040030006203000067
:020000040000fa
:0400340006030000bf
:020000040000fa
:04003800620300005f
:020000040000fa
:04003c00620300005b
:020000040000fa
:040040006203000057
:020000040000fa
:040044006203000053
:020000040000fa
:04004800fe020000b4
:020000040000fa
:04004c00620300004b
:020000040000fa
:040050006203000047
:020000040000fa
:040054006203000043
:020000040000fa
:04005800620300003f
:020000040000fa
:04005c003e0300005f
:020000040000fa
:040060006203000037
:020000040000fa
:040064006203000033
:020000040000fa
:04006800620300002f
:020000040000fa
:04006c00620300002b
:020000040000fa
:040070006203000027
:020000040000fa
:040074006203000023
:020000040000fa
:04007800620300001f
:020000040000fa
:04007c00620300001b
:020000040000fa
:040080006203000017
:020000040000fa
:040084006203000013
:020000040000fa
:04008800620300000f
:020000040000fa
:04008c00620300000b
:020000040000fa
:040090006203000007
:020000040000fa
:04009400260300003f
:020000040000fa
:0400980062030000ff
:020000040000fa
:04009c0062030000fb
:020000040000fa
:0400a00062030000f7
:020000040000fa
:0400a40062030000f3
:020000040000fa
:0400a80062030000ef
:020000040000fa
:0400ac0062030000eb
:020000040000fa
:0400b00062030000e7
:020000040000fa
:0400b40062030000e3
:020000040000fa
:0400b80062030000df
:020000040000fa
:0400bc0062030000db
:020000040000fa
:0400c00062030000d7
:020000040000fa
:0400c40062030000d3
:020000040000fa
:0400c80062030000cf
:020000040000fa
:0400cc0062030000cb
:020000040000fa
:0400d00062030000c7
:020000040000fa
:0400d40062030000c3
:020000040000fa
:0400d80062030000bf
:020000040000fa
:0400dc0062030000bb
:020000040000fa
:0400e00062030000b7
:020000040000fa
:0400e40062030000b3
:020000040000fa
:0400e80062030000af
:020000040000fa
:0400ec0062030000ab
:020000040000fa
:0400f00062030000a7
:020000040000fa
:0400f40062030000a3
:020000040000fa
:0400f800620300009f
:020000040000fa
:0400fc00620300009b
:020000040000fa
:040100006203000096
:020000040000fa
:040104006203000092
:020000040000fa
:04010800620300008e
:020000040000fa
:04010c00620300008a
:020000040000fa
:040110006203000086
:020000040000fa
:040114006203000082
:020000040000fa
:04011800620300007e
:020000040000fa
:04011c00620300007a
:020000040000fa
:040120006203000076
:020000040000fa
:040124006203000072
:020000040000fa
:04012800620300006e
:020000040000fa
:04012c00620300006a
:020000040000fa
:040130006203000066
:020000040000fa
:040134006203000062
:020000040000fa
:04013800620300005e
:020000040000fa
:04013c00620300005a
:020000040000fa
:040140006203000056
:020000040000fa
:040144006203000052
:020000040000fa
:04014800620300004e
:020000040000fa
:04014c00620300004a
:020000040000fa
:040150006203000046
:020000040000fa
:040154006203000042
:020000040000fa
:04015800620300003e
:020000040000fa
:04015c00620300003a
:020000040000fa
:040160006203000036
:020000040000fa
:040164006203000032
:020000040000fa
:04016800620300002e
:020000040000fa
:04016c00620300002a
:020000040000fa
:040170006203000026
:020000040000fa
:040174006203000022
:020000040000fa
:04017800620300001e
:020000040000fa
:04017c00620300001a
:020000040000fa
:040180006203000016
:020000040000fa
:040184006203000012
:020000040000fa
:04018800620300000e
:020000040000fa
:04018c00620300000a
:020000040000fa
:040190006203000006
:020000040000fa
:040194006203000002
:020000040000fa
:0401980062030000fe
:020000040000fa
:04019c0062030000fa
:020000040000fa
:0401a00062030000f6
:020000040000fa
:0401a40062030000f2
:020000040000fa
:0401a80062030000ee
:020000040000fa
:0401ac0062030000ea
:020000040000fa
:0401b00062030000e6
:020000040000fa
:0401b40062030000e2
:020000040000fa
:0401b80062030000de
:020000040000fa
:0401bc0062030000da
:020000040000fa
:0401c00062030000d6
:020000040000fa
:0401c40062030000d2
:020000040000fa
:0401c80062030000ce
:020000040000fa
:0401cc0062030000ca
:020000040000fa
:0401d00062030000c6
:020000040000fa
:0401d40062030000c2
:020000040000fa
:0401d80062030000be
:020000040000fa
:0401dc0062030000ba
:020000040000fa
:0401e00062030000b6
:020000040000fa
:0401e40062030000b2
:020000040000fa
:0401e80062030000ae
:020000040000fa
:0401ec0062030000aa
:020000040000fa
:0401f00062030000a6
:020000040000fa
:0401f40062030000a2
:020000040000fa
:0401f800620300009e
:020000040000fa
:0401fc00620300009a
:020000040000fa
:040200006203000095
:020000040000fa
:040204006203000091
:020000040000fa
:04020800620300008d
:020000040000fa
:04020c006203000089
:020000040000fa
:040210006203000085
:020000040000fa
:040214006203000081
:020000040000fa
:04021800620300007d
:020000040000fa
:04021c006203000079
:020000040000fa
:040220006203000075
:020000040000fa
:040224006203000071
:020000040000fa
:04022800620300006d
:020000040000fa
:04022c006203000069
:020000040000fa
:040230006203000065
:020000040000fa
:040234006203000061
:020000040000fa
:04023800620300005d
:020000040000fa
:04023c006203000059
:020000040000fa
:040240006203000055
:020000040000fa
:040244006203000051
:020000040000fa
:04024800620300004d
:020000040000fa
:04024c006203000049
:020000040000fa
:040250006203000045
:020000040000fa
:040254006203000041
:020000040000fa
:04025800620300003d
:020000040000fa
:04025c006203000039
:020000040000fa
:040260006203000035
:020000040000fa
:040264006203000031
:020000040000fa
:04026800620300002d
:020000040000fa
:04026c006203000029
:020000040000fa
:040270006203000025
:020000040000fa
:040274006203000021
:020000040000fa
:04027800620300001d
:020000040000fa
:04027c006203000019
:020000040000fa
:040280006203000015
:020000040000fa
:100400004f0421000eff2c000e01880000000000a8
:10041000000020000000e000020032000001200087
:100420002002880014000700a80007000000e00078
:1004300003003a00002b21000100200002003700d9
:100440000000200001002000810f70000100320038
:100450000f000700000020000000e0000200320052
:100460000000020000000000cc10020000000000ac
:100470000040da000000fe00200020000000e00044
:1004800002003200100020009001880000000600e9
:10049000a1028800800478000000eb001f003700f4
:1004a000e284440054a0b4009905ba00e2844400f8
:1004b00054a0b4009906ba00e284440054a0b400e9
:1004c0000006eb00476fde00fd07b200ae018800ba
:1004d000636ce10003003a000ad801000000eb0061
:1004e0000e003700606ce10008003a00004deb00a0
:1004f0000a05e800020039003420ec000af0a000f0
:100500008b05e900f9ff3e00040037006168e10057
:10051000010032000086eb000b00070019c7ba008b
:100520000e04e0001905ba0003003a000a00e000da
:10053000dbff3a0000000600fe07b200ae028800b2
:100540008a047800f5ff37000cd0a300e20f4d00bd
:100550001c00390089027800354dba000a05e80010
:10056000020039003420ec000af0a0008b05e900fd
:100570000f003200254dba000a05e80002003900dc
:100580003420ec000af0a0008b05e90008003200de
:100590000c00e0000600320015cdba000a05e800a4
:1005a000020039003420ec000af0a0008b05e900bd
:1005b0008984e80054a0b4000b00e000e2ff3a0098
:1005c000000006009902ba00055d78008b05e9007d
:1005d000f7ff3200c82ade00055d78008b05e900d0
:1005e000f3ff32000c00e000f1ff320019ddba0029
:1005f000eeff370092080400000000000000fa003f
:100600000108a9000080fa00004006003600f8004a
:10061000809fbe00829fbe00849fbe00869fbe005a
:100620000000fa000068a9007e0407009107070097
:100630000080fa004f03be004f02be004f01be0013
:100640004f00be003600f90000400600809fbe004b
:100650000000fa000368a90010808000218080005b
:1006600061004000e0804800108088002180880000
:100670000080fa004f00be0000400600801f780096
:100680000000fa0001a8a90030188000d08188007d
:1006900040188000e081880020188000f0818800e8
:1006a00010188000008288000018800010828800e6
:1006b00010c0b30013f0b7000080fa004f007800bc
:1006c000004006000040da000000fe0000000500c7
:1006d00003f0a200889fbe008a9fbe008c1f780096
:1006e000180107001f0133006450e1004f00320081
:1006f0006420e1005200320003826c0007003b00de
:100700000905d0000306d000820f54000c065d00de
:1007100002003900020032008901780003067800e7
:100720008582550004003d000003fd008103fd00ab
:100730008502ea008b854200840f720002003b00b4
:1007400060001000e08018006011b8000005eb00a8
:100750007a28e1000a00390006007800c75ddd0054
:10076000f707b200878075002d0037008281710085
:100770000a017800610560008180d1000080d3000b
:100780008502e900f9ff3b00060440008784480029
:1007900002003b0060041400e0841c000988a300f0
:1007a000070032008a81710082817100610164005a
:1007b0008904d1000884d3008b05e80017003700b6
:1007c0000978a30013003a000b00e0001300340086
:1007d0008b05e9000804440089844c000a44740035
:1007e0000978a3000d003a000b00e0000700340078
:1007f0008b05e9000804440089844c0001003a009c
:100800000b0020000978a300f7ff32000001eb0085
:1008100002003700828171000a0178008e00070013
:100820000cf0a70001f0a000d70037006420e10021
:1008300002003a00838f6c00d70033000801be002d
:100840000200be00d0003700889fbe008a9fbe0015
:100850008c1f7800bb000700c200330003866c00c9
:100860006450e1002e0032006420e10033003200c9
:100870006150e1002f0032006120e10031003200c0
:1008800085855500eb07b000090020000804200012
:10089000050037000804440089844c000a00310038
:1008a0000603430087834b000001530081815b00f6
:1008b000f8ff33000203be000800a0000804440053
:1008c00089844c00f6ff3900c639dd0083017300ce
:1008d00001003200130020008904d1000884d300f5
:1008e0000998a300050032000800a7000300a0003b
:1008f0008904d1000884d3008b05e8008904d10065
:100900000884d3000001eb000281d20052000700ee
:1009100001f0a1000cf0a70001f0a0009a00370040
:100920006420e1009c0032000801be000200be000d
:10093000f7ff37006120e100970032006000b80047
:10094000f3ff37000000200001f82700f0ff370018
:1009500014002000c7003700f4ff2f00c500370047
:100960000001be00620007000470a70003f0a100b0
:100970006509b100160032000d0035006828e1005d
:1009800006003500f0ff2f00f1ff27000300e00014
:1009900013003b000100280000000500000040009b
:1009a000818048008502e900fcff3a00080037001a
:1009b000f88f420002003c008000eb0000000500c0
:1009c0008100d1000080d3008502e800fcff3a00de
:1009d0000300e00002003b0060001000e08018000f
:1009e000000006000001be00410007000470a700df
:1009f00003f0a10003f8a30013003a006509b10059
:100a000010003200090035006928e10002003500bd
:100a1000010028000000050000004000818048001f
:100a20008502e900fcff3a0000000600f88f420052
:100a3000050035008100d1000080d3008502e80068
:100a4000fcff3a00000006008000eb0000000500fb
:100a50006011b800a20037008100200061805500bd
:100a60000b003d000b00200061fe2f000100e100a3
:100a70001d00340082817100610164008904d1008d
:100a80000884d3000000e800faff3a00710020005b
:100a90006100640003007000020060000900320081
:100aa00061044400e0844c000988a5000500320080
:100ab0008b05e8006808e10002003a008904d100d3
:100ac0000884d300f20f20000258e10005003d0029
:100ad000c75ddd00f907b200898075000800780065
:100ae000000006000bf827008b00780000000500ce
:100af000c70ade00f107b200f50fb20008003200ad
:100b0000e1cf4200020032000170a0002400050085
:100b1000810f700001003200040805004400050048
:100b2000810f700002003a00140005008502e90000
:100b30000000400081c04800fcff3b000170a000a5
:100b4000240005000004be00e9ff07000003be000a
:100b50000405be000200be00e5ff0700844f7500db
:100b6000000006000200be006450e10005003600ef
:100b70006420e100020036000968a30001003a0089
:100b80000800be000160a0004f0678004f05be00bf
:100b90004f04be0000000600f0ff2f00f1ff270009
:100ba000f9ff3700889fbe008a9fbe008c1f780027
:100bb000e4ff0700ebff330003866c006450e100a4
:100bc000240032006420e100270032006150e1007f
:100bd000220032006120e100210032008b854200ba
:100be000eb07b1000134b800003ab8000804420035
:100bf00089844a00013ab8000030b800888040007b
:100c000009014a00040033000000400081804800d0
:100c1000020149008b05e900c909dd00830170006c
:100c20000100320013002000c814de004814dd006b
:100c30004709de001200b200c808de000884700018
:100c400085ff070001f0a1000cf0a70001f0a00053
:100c5000cdff37006120e100cfff32000801be0068
:100c60000200be00f7ff37006150e100fcff3a00d0
:100c7000c9ff3700889fbe008a9fbe00841f78008e
:100c8000b0ff07004f00780011003300f0ff2f0085
:100c9000838f6c0006003b00040565000a00a70076
:100ca0000800370009f0a6001000200008003700f7
:100cb000820f5400838f5c00030039001000200075
:100cc00001003e000000200009f0a7000000ea003b
:100cd0004f05be004f04be000000e000000006000b
:100ce000889fbe008a9fbe000082700004027100cf
:100cf00004827100260032000004be000200be0023
:100d00006011b8006b092000950220000182cf001d
:100d10000a0039000541b1000082cf000700390008
:100d20000541b1000982cf00040039000541b1003e
:100d30000882cf00010039000541b1000542520090
:100d4000120032000a003b008281710061016400e0
:100d50008100d1000080d3008984d3000884d300af
:100d60008b05e8000442e800f7ff3a00070037006f
:100d70000804440089844c00000048008180480039
:100d80008b05e9000442e900f9ff3a0032ff070051
:0c0d90004f05be004f04be00000006002e
:020000040000fa
:100d9c000000fa0006d0bf000080fb00cf80de0010
:100dac005201200003002000820f5000838f580056
:100dbc00d3003e0000060100150037001e0037006e
:100dcc002000370030003700320037004200370077
:100ddc0044003700540037005600370066003700d7
:100dec006800370078003700c5003700c4003700b2
:100dfc00c3003700c2003700760037008a00370086
:100e0c00ab003700bb00370095003700a50037005a
:100e1c000230ef000430ef000001eb006000b8007e
:100e2c0024030700120020006000b8002103070013
:100e3c0010c0b30006f0b70020c0b30006f0b70036
:100e4c00b3003700608080007180800002002000b9
:100e5c00031a2c0050ff07000001eb0015030700dc
:100e6c00608080007180800002002000031a240042
:100e7c0049ff0700120020000e03070030c0b3002a
:100e8c0006f0b700a2003700208920000000010006
:100e9c009f0037006080800071808000020020007d
:100eac00031a2c003cff07000001eb0001030700b4
:100ebc0060808000718080000200200003102c00f4
:100ecc0035ff070012002000fa02070050c0b300e3
:100edc0006f0b7008e0037002089200000000100ca
:100eec008b00370060808000718080000200200041
:100efc000310240028ff07000001eb00ed0207009f
:100f0c00608080007180800002002000031a2400a1
:100f1c0021ff070012002000e602070070c0b3009a
:100f2c0006f0b7007a00370020892000000001008d
:100f3c007700370060808000718080000200200004
:100f4c0003172c0014ff07000001eb00d902070067
:100f5c0060808000718080000200200003172c004c
:100f6c000dff070012002000d202070090c0b30052
:100f7c0006f0b70066003700208920000000010051
:100f8c0063003700608080007180800002002000c8
:100f9c000317240000ff07000001eb00c502070047
:100fac006080800071808000020020000317240004
:100fbc00f9fe070012002000be020700b0c0b3000b
:100fcc0006f0b70052003700208920000000010015
:100fdc004f0037006080800071808000020020008c
:100fec0003172400ecfe07000001eb00b102070020
:100ffc0060808000718080000200200003172400b4
:10100c00e5fe070012002000aa02070010808000f5
:10101c0021808000000078004080880010c1b3005f
:10102c0006f0b7003a003700128080002380800061
:10103c00408080008000eb0000015100818159004c
:10104c00c012200001002000800f5100818f590038
:10105c002e00360020c0b30006f0b7002c0037007d
:10106c0060808000718080000200200003122c0040
:10107c00c9fe07000001eb008e02070060808000b3
:10108c007180800002002000831c2400c2fe070037
:10109c00120020008702070050c1b30006f0b70011
:1010ac001b003700208920000000010018003700c9
:1010bc00608080007180800002002000831c24006e
:1010cc00b5fe07000001eb007a020700608080008b
:1010dc00718080000200200003122c00aefe07007d
:1010ec00120020007302070050c1b30006f0b700d5
:1010fc0007003700208920000000010004003700a1
:10110c000670ef0000000000010037000000000036
:10111c000080fa00000006000000fa00881f78002a
:10112c00508180006181800018c0b3000200200053
:10113c000317240003fe07000000e0000100350047
:10114c000044eb000804e000030032000bd0bf00a9
:10115c00704040000bf0b70030818000418180006e
:10116c0018c0b3000200200003192400f5fd07008d
:10117c000000e000010035000044eb000804e00032
:10118c00030032000bd0bf00684040000bf0b700ea
:10119c00708180008181800018c0b30002002000a3
:1011ac00031a2400e7fd07000000e00001003500f1
:1011bc000044eb000804e000030032000bd0bf0039
:1011cc00644040000bf0b70090818000a18180004a
:1011dc0018c0b3000200200003192400d9fd070039
:1011ec000000e000010035000044eb000804e000c2
:1011fc00030032000bd0bf0000c0e8000bf0b700ba
:10120c00b0818000c181800018c0b30002002000b2
:10121c0003172400cbfd07000000e000010035009f
:10122c000044eb000804e000030032000bd0bf00c8
:10123c000040e8000bf0b700308180004181800055
:10124c0018c0b30002002000031f2400bffd0700dc
:10125c000000e00001003d000044eb000804e00049
:10126c0031003200708180008181800018c0b30091
:10127c0002002000031f2400b4fd07000000e00062
:10128c0001003d000044eb000804e00026003200a1
:10129c0090818000a181800018c0b3000200200062
:1012ac00031f2400a9fd07000000e00001003d0021
:1012bc000044eb000804e0001b0032005081800069
:1012cc006181800018c0b3000200200003172400c5
:1012dc009efd07000000e00001003d000044eb0013
:1012ec000804e00010003200b0818000c181800051
:1012fc0018c0b300020020000317240093fd070060
:10130c000000e00001003d000044eb000804e00098
:10131c00050032003033230031fb2300608088004d
:10132c0071808800040037000000200001f82300c1
:10133c00608088007180880030818000418180004d
:10134c0018c0b30002002000031024007dfd07002c
:10135c000000e000010034000044eb000804e00051
:10136c002c003a00708180008181800018c0b3008d
:10137c00020020000310240072fd07000000e000b2
:10138c00010034000044eb000804e00021003a00a6
:10139c0090818000a181800018c0b3000200200061
:1013ac000310240067fd07000000e000010034007a
:1013bc000044eb000804e00016003a005081800065
:1013cc006181800018c0b30002002000030a2400d1
:1013dc005cfd07000000e000010034000044eb005d
:1013ec000804e0000b003a00b0818000c18180004d
:1013fc0018c0b30002002000030a240051fd0700ae
:10140c000000e000010034000044eb000804e000a0
:10141c000300320000c1b3000af0b700940037009b
:10142c000bd0bf000080fb00cf80de00f20120005b
:10143c0003002000820f5000838f580081003e0073
:10144c00000601001f003700210037002300370081
:10145c002500370027003700290037002b00370004
:10146c002d0037002f0037003100370033003700d4
:10147c003500370037003700390037003b003700a4
:10148c003d0037003f003700410037004300370074
:10149c004500370047003700490037004b00370044
:1014ac004d0037004f003700510037005300370014
:1014bc005500370057003700590037005b003700e4
:1014cc005d00370020c0b3000af0b7005f003700a2
:1014dc0020c1b3000af0b7005c00370040c0b30075
:1014ec000af0b7005900370040c0b3000af0b7004b
:1014fc005600370000c1b3000af0b70053003700a4
:10150c0080c0b3000af0b7005000370080c0b300b1
:10151c000af0b7004d00370080c0b3000af0b700e6
:10152c004a00370060c0b3000af0b700470037002c
:10153c00a0c0b3000af0b7004400370000c1b300ec
:10154c000af0b7004100370000c1b3000af0b70041
:10155c003e003700a0c0b3000af0b7003b003700d4
:10156c0000c1b3000af0b7003800370000c1b30067
:10157c000af0b7003500370080c0b3000af0b7009e
:10158c003200370040c1b3000af0b7002f0037001b
:10159c0000c1b3000af0b7002c00370080c0b300c4
:1015ac000af0b7002900370080c0b3000af0b7007a
:1015bc0026003700a0c0b3000af0b70023003700a4
:1015cc0000c1b3000af0b7002000370080c0b300a0
:1015dc000af0b7001d00370000c1b3000af0b700d5
:1015ec001a00370060c0b3000af0b70017003700cc
:1015fc0060c0b3000af0b70014003700a0c0b300fd
:10160c000af0b7001100370000c1b3000af0b700b0
:10161c000e003700a0c0b3000af0b7000b00370073
:10162c0000c1b3000af0b70008003700a0c0b30037
:10163c000af0b7000500370000c1b3000af0b7008c
:10164c00020037000670ef00000000000ad0bf0057
:10165c008080fb0006d0bf000080fb000000e9008a
:10166c00808f5000020032000ad0bf0006f0b70095
:10167c004f0478000080fa00000006000000fa0019
:10168c001160800080ff2f000080600010608800d7
:10169c0000fa20002060880023aca800238ca8004e
:1016ac0011618000f03f2f000080600000a0a000be
:1016bc00106188003000200020618800c3aca800b5
:1016cc00c38ca80011668000f03f2f0000806000e2
:1016dc0000a0a00010668800300020002066880062
:1016ec0001eca8000080fa00000006000600fa00d9
:1016fc00881f7800008fbe00220798002e009000f3
:10170c00e10f50001f003a0018c0b3006011b80080
:10171c001e0078009e0090008cfc07000000e0008a
:10172c0001003d000044eb000804e000040032001e
:10173c0023cca90015eea80023eca8000300370069
:10174c0023eca90015cea80023cca8001e0078001d
:10175c009e00900006020700d0808800e18088007f
:10176c00d0808000e1808000020020000322240051
:10177c0009fd0700fe01070097fc07000000780038
:10178c00306188002e0090000000e0001f003a003d
:10179c0018c0b3006011b8001e0078009e009000c5
:1017ac006afc07000000e00001003d000044eb0073
:1017bc000804e00004003200c3cca90024eea80009
:1017cc00c3eca80003003700c3eca90024cea8008a
:1017dc00c3cca8001e0078009e009000e401070016
:1017ec001081880021818800108180002181800077
:1017fc000200200003222400e7fc0700dc010700a4
:10180c0075fc070000007800306688004f047800f3
:10181c000080fa00000006000000fa00889fbe005d
:10182c008a9fbe001481800025818000f08080009a
:10183c000181800018c0b3000001be000400be008e
:10184c0040fc07000000e000010035000044eb0004
:10185c000804e0000e003200f8808000098180004e
:10186c001a8180002b818000808080008000eb003a
:10187c0074fc07000001be000a00be0092fb0700ca
:10188c000801be00e8010700108188002181880052
:10189c001481800025818000f0808000018180000f
:1018ac0018c0b3000001be000400be0027fc0700f6
:1018bc000000e00001003c000044eb000804e000e4
:1018cc000e003200f8808000098180001a818000af
:1018dc002b818000808080008000eb0059fc070089
:1018ec000001be000a00be0076fb07000801be0026
:1018fc00b5010700108188002181880010818000cb
:10190c002181800018c0b3006011b8000ffc0700e3
:10191c000000e00001003c000044eb000804e00083
:10192c0004003200c3cca90024eea800c3eca8002c
:10193c0003003700c3eca90024cea800c3cca80038
:10194c0010818000218180008901070002002000a5
:10195c000322240090fc07001ffc07000000780005
:10196c0030668800d4808000e5808000b0808000e4
:10197c00c180800018c0b3000001be000400be008e
:10198c00f0fb07000000e000010035000044eb0014
:10199c000804e0000e003200b8808000c98080008e
:1019ac00da808000eb808000808080008000eb007b
:1019bc0024fc07000001be000a00be0042fb070029
:1019cc000801be0098010700d0808800e1808800e3
:1019dc00d4808000e5808000b0808000c1808000d1
:1019ec0018c0b3000001be000400be00d7fb070006
:1019fc000000e00001003c000044eb000804e000a3
:101a0c000e003200b8808000c9808000da8080002f
:101a1c00eb808000808080008000eb0009fc0700d8
:101a2c000001be000a00be0026fb07000801be0034
:101a3c0065010700d0808800e1808800d08080009c
:101a4c00e180800018c0b3006011b800bffb070034
:101a5c000000e00001003c000044eb000804e00042
:101a6c000400320023cca90015eea80023eca8003a
:101a7c000300370023eca90015cea80023cca80046
:101a8c00d0808000e1808000390107000200200036
:101a9c000322240040fc0700cffb07000000780065
:101aac00306188004f05be004f04be000080fa0074
:101abc00000006000600fa00008fbe002207980006
:101acc002e0090000000e00004003a001e01780097
:101adc009e019000f2808800038188002e00900007
:101aec00e10f500004003a001e0178009e019000a6
:101afc00b2808800c38088000080fa0000000600d5
:101b0c000000fa0013e1a90011e1a9001061a8007e
:101b1c001021a90081088000f0fc2f0000806000db
:101b2c00800888000a21ef000621ef00404c2000bd
:101b3c007008880000402b0060088800214280005b
:101b4c0080ff2f00008060000000a0002042880071
:101b5c000108a9002108a80011e1a8000080fa00e2
:101b6c00000006000000fa0005e1a90000002400b6
:101b7c00c1592400060007000421a9000068a9002f
:101b8c002068a80005e1a8000080fa00000006000b
:101b9c000400fa00881f7800008fbe002108800026
:101bac00f0fc2f0000806000200888001e017800e7
:101bbc009e0190000068290081c124001ffb0700d2
:101bcc0018c0b30002f02f00f37724005ffb07006e
:101bdc000000e00001003c000044eb000804e000c1
:101bec005400320021088000f0fc2f0000806000bf
:101bfc000040a000200888001e0178009e01900083
:101c0c000068290081c124000cfb070002002000a1
:101c1c000310240009fb070018c0b30002f02f00ca
:101c2c00f377240049fb07000000e00001003c00b2
:101c3c000044eb000804e000320032002108800070
:101c4c00f0fc2f00008060000050a00020088800ed
:101c5c001e0178009e0190000068290081c12400bb
:101c6c00f6fa07000200200003282400f3fa07000c
:101c7c0018c0b30002f02f00f377240033fb0700e9
:101c8c000000e00001003c000044eb000804e00010
:101c9c0010003200210880000003200001007000b9
:101cac00200888001e0178009e0190000068290021
:101cbc0081c12400e1fa070002002000033824004f
:101ccc00defa070023fb07000000780010088800ec
:101cdc00200037001e0178009e019000006829004a
:101cec0081c12400d5fa070002002000032824003b
:101cfc00d2fa070017fb07000000780010088800d4
:101d0c00140037001e0178009e0190000068290025
:101d1c0081c12400c9fa070002002000031024002e
:101d2c00c6fa07000bfb07000000780010088800bb
:101d3c00080037001e0178009e0190000068290001
:101d4c0081c12400bdfa070002fb070000007800e7
:101d5c00100888004f0478000080fa00000006008c
:101d6c000000fa001fe1a90000002000a147240098
:101d7c00060007001e21a9000368a9002368a8001b
:101d8c001fe1a8000080fa00000006000400fa0021
:101d9c00881f7800008fbe00f1088000f0fc2f0037
:101dac0000806000f00888001e0178009e01900001
:101dbc000068290081c12400a0fa070018c0b300f4
:101dcc0002f02f00f3772400e0fa07000000e00097
:101ddc0001003c000044eb000804e0005400320019
:101dec00f1088000f0fc2f00008060000040a00093
:101dfc00f00888001e0178009e0190000068290000
:101e0c0081c124008dfa0700020020000310240079
:101e1c008afa070018c0b30002f02f00f3772400f1
:101e2c00cafa07000000e00001003c000044eb008f
:101e3c000804e00032003200f1088000f0fc2f00b2
:101e4c00008060000050a000f00888001e0178009f
:101e5c009e0190000068290081c1240077fa0700d8
:101e6c00020020000328240074fa070018c0b300f5
:101e7c0002f02f00f3772400b4fa07000000e00012
:101e8c0001003c000044eb000804e00010003200ac
:101e9c00f10880000003200001007000f0088800a9
:101eac001e0178009e0190000068290081c1240069
:101ebc0062fa070002002000033824005ffa0700d2
:101ecc00a4fa070000007800d00888002000370032
:101edc001e0178009e0190000068290081c1240039
:101eec0056fa0700020020000328240053fa0700ca
:101efc0098fa070000007800d0088800140037001a
:101f0c001e0178009e0190000068290081c1240008
:101f1c004afa0700020020000310240047fa0700c9
:101f2c008cfa070000007800d00888000800370001
:101f3c001e0178009e0190000068290081c12400d8
:101f4c003efa070083fa070000007800d0088800ea
:101f5c004f0478000080fa00000006000000fa0030
:101f6c000230ef000430ef000080fa0000000600a1
:101f7c000400fa00881f7800008fbe0018c0b30060
:101f8c006011b8001e0078009e0090006ffa0700e8
:101f9c000000e00001003d000044eb000804e000fc
:101fac00030032001e0078009e00900003003700f2
:101fbc001e0078009e00900001f0a2004f047800f3
:101fcc000080fa00000006000800fa00881f780064
:101fdc00008fbe00220798003307980018c0b3008a
:101fec002e019000be0190001e0078009e00900013
:101ffc0056fa07000000e00001003c000044eb0032
:10200c000804e000030032001e0078009e009000df
:10201c00020037002e009000be0090004f047800a4
:10202c000080fa00000006000800fa00881f780003
:10203c00008fbe00220798003307980018c0b30029
:10204c002e019000be0190001e0078009e009000b2
:10205c003cfa07000000e000010035000044eb00f2
:10206c000804e000030032001e0078009e0090007f
:10207c00020037002e009000be0090004f04780044
:10208c000080fa00000006000c00fa00881f78009f
:10209c00008fbe0022079800330798004407980071
:1020ac005507980018c0b3004e019000de01900057
:1020bc001e0078009e00900024fa07000000e0004b
:1020cc0001003c000044eb000804e0000400320076
:1020dc004e019000de019000028fbe000e00370012
:1020ec0018c0b3002e019000be0190001e007800b5
:1020fc009e00900013fa07000000e000010035007c
:10210c000044eb000804e000030032002e019000b4
:10211c00be019000028fbe001e0078009e00900051
:10212c004f0478000080fa00000006000400fa005a
:10213c00008fbe00b2fd2000930424001e00780026
:10214c009e009000bdf907000200200043332400dc
:10215c0091fa07000080fa00000006000400fa0063
:10216c00008fbe00b2fd2000930424001e007800f6
:10217c009e00900088fa07000200200043332400e0
:10218c00aef907000080fa00000006001800fa0003
:10219c00c50007000801070038fd0700780007009c
:1021ac0057fe07006ffe0700edfe07000000200041
:1021bc008124240050818800618188000000200067
:1021cc008124240030818800418188000000200097
:1021dc008124240070818800818188000000200007
:1021ec008124240090818800a181880000002000b7
:1021fc0081242400b0818800c18188006000b8006f
:10220c00f0808800018188006000b800b0808800f0
:10221c00c18088009c0007000004e00056003200da
:10222c009d00070094000700100798000000eb00c9
:10223c00000f7800160037001e00780000004000e8
:10224c009e00900000804000100078008000eb00a1
:10225c00fcf9070032332300330524004efa070043
:10226c00020020000358240074f90700d2cc2c0083
:10227c00c304240048fa07001e0178004211dd0057
:10228c0064014100020147000089be001e0fe800f6
:10229c001e007800e40f5000e7ff34002e00900081
:1022ac00be0090000001be00000020008120240030
:1022bc0062f9070002002000030a240001f907005c
:1022cc0050818800618188004e009000de009000f3
:1022dc000001be00000020008120240057f90700f7
:1022ec0002002000030a2400f6f807003081880061
:1022fc00418188006e009000fe0090000001be003d
:10230c0000002000812024004cf90700020020006e
:10231c00030a2400ebf80700708188008181880093
:10232c000e0890009e0890000001be0000002000e6
:10233c008120240041f9070002002000030a240038
:10234c00e0f8070090818800a18188002e08900099
:10235c00be0890000001be00000020008120240077
:10236c0036f9070002002000030a2400d5f8070004
:10237c00b0818800c181880085fa0700a5ff37006d
:10238c000000fa0021e3a9002143a80001198000f4
:10239c00f0cf2f0000806000001988002043a900b6
:1023ac0001198000000e2000010070000019880047
:1023bc0011198000f0ff21000080600010198800c6
:1023cc002343a80011198000f0cf2f00008060007b
:1023dc00101988001119800030f82f00008060005f
:1023ec000040a000101988002203a9002223a90094
:1023fc0025e3a900f0c0b30024e3b7002119800045
:10240c00f00f2e008080600000f0200001007000b2
:10241c00201988003303a9004feea8006f2ea800e6
:10242c002f6ea8002e0ea8001e2ea80031e3a800c7
:10243c003063a80030c3a8003163a8002e03a800a5
:10244c004119800000fc2f000080600040198800ba
:10245c0028e3a90001a8a90021a8a80021e3a8004d
:10246c000080fa00000006000000fa002023a800fb
:10247c000080fa00000006000000fa00a003210012
:10248c000080fa00000006000000fa0013d0bf0024
:10249c000080fa00000006000000fa001370ef0044
:1024ac000080fa00000006000000fa00f003200093
:1024bc00303a8800213a8000f0f32f000080600051
:1024cc00203a8800213a800000fe2f000080600036
:1024dc000000a000203a8800120020008007200095
:1024ec00a1092000337420008049780081497800cc
:1024fc0082497800103a8000000178000200a000a8
:10250c0060042000710520002374200080497800ad
:10251c00814978008249780000000000113a80005f
:10252c00000027008080600000002100808f500098
:10253c00faff3a0000000000113a8000000220006f
:10254c00008060000000e000fbff32000080fa0019
:04255c000000060075
:020000040000fa
:1025600000100000060000008000000014100000b1
:102570002600000080000000101000000200000093
:1025800082000000050000003a1000000a00000070
:102590008000000012100000020000008000000017
:1025a0000610000006000000800000000c10000073
:1025b0000400000082000000000080003f000000d6
:0425c0000000000017
:020000040000fa
:1025c4000000fa000e2eef001e2eef002e2eef005c
:1025d4003e2eef004e2eef005e2eef006e2eef002b
:1025e400214ea90060cea90060eea90011cea90079
:1025f40011eea90020cea90020eea9000080fa0067
:0426040000000600cc
:020000040000fa
:02000004000af0
:04afe000cfff00009f
:020000040000fa
:02000004000af0
:04afe400ffff00006b
:020000040000fa
:02000004000af0
:04afe8007fff0000e7
:020000040000fa
:02000004000af0
:04afec005fff000003
:020000040000fa
:02000004000af0
:04aff00038ff000026
:020000040000fa
:02000004000af0
:04aff400ffff00005b
:00000001FF
