:020000040000fa
:080000000002040000000000f2
:020000040000fa
:04000800620300008f
:020000040000fa
:04000c00620300008b
:020000040000fa
:040010006203000087
:020000040000fa
:040014006203000083
:020000040000fa
:04001800620300007f
:020000040000fa
:04001c00620300007b
:020000040000fa
:040020006203000077
:020000040000fa
:040024006203000073
:020000040000fa
:04002800620300006f
:020000040000fa
:04002c00620300006b
:020000040000fa
:040030006203000067
:020000040000fa
:0400340006030000bf
:020000040000fa
:04003800620300005f
:020000040000fa
:04003c00620300005b
:020000040000fa
:040040006203000057
:020000040000fa
:040044006203000053
:020000040000fa
:04004800fe020000b4
:020000040000fa
:04004c00620300004b
:020000040000fa
:040050006203000047
:020000040000fa
:040054006203000043
:020000040000fa
:04005800620300003f
:020000040000fa
:04005c003e0300005f
:020000040000fa
:040060006203000037
:020000040000fa
:040064006203000033
:020000040000fa
:04006800620300002f
:020000040000fa
:04006c00620300002b
:020000040000fa
:040070006203000027
:020000040000fa
:040074006203000023
:020000040000fa
:04007800620300001f
:020000040000fa
:04007c00620300001b
:020000040000fa
:040080006203000017
:020000040000fa
:040084006203000013
:020000040000fa
:04008800620300000f
:020000040000fa
:04008c00620300000b
:020000040000fa
:040090006203000007
:020000040000fa
:04009400260300003f
:020000040000fa
:0400980062030000ff
:020000040000fa
:04009c0062030000fb
:020000040000fa
:0400a00062030000f7
:020000040000fa
:0400a40062030000f3
:020000040000fa
:0400a80062030000ef
:020000040000fa
:0400ac0062030000eb
:020000040000fa
:0400b00062030000e7
:020000040000fa
:0400b40062030000e3
:020000040000fa
:0400b80062030000df
:020000040000fa
:0400bc0062030000db
:020000040000fa
:0400c00062030000d7
:020000040000fa
:0400c40062030000d3
:020000040000fa
:0400c80062030000cf
:020000040000fa
:0400cc0062030000cb
:020000040000fa
:0400d00062030000c7
:020000040000fa
:0400d40062030000c3
:020000040000fa
:0400d80062030000bf
:020000040000fa
:0400dc0062030000bb
:020000040000fa
:0400e00062030000b7
:020000040000fa
:0400e40062030000b3
:020000040000fa
:0400e80062030000af
:020000040000fa
:0400ec0062030000ab
:020000040000fa
:0400f00062030000a7
:020000040000fa
:0400f40062030000a3
:020000040000fa
:0400f800620300009f
:020000040000fa
:0400fc00620300009b
:020000040000fa
:040100006203000096
:020000040000fa
:040104006203000092
:020000040000fa
:04010800620300008e
:020000040000fa
:04010c00620300008a
:020000040000fa
:040110006203000086
:020000040000fa
:040114006203000082
:020000040000fa
:04011800620300007e
:020000040000fa
:04011c00620300007a
:020000040000fa
:040120006203000076
:020000040000fa
:040124006203000072
:020000040000fa
:04012800620300006e
:020000040000fa
:04012c00620300006a
:020000040000fa
:040130006203000066
:020000040000fa
:040134006203000062
:020000040000fa
:04013800620300005e
:020000040000fa
:04013c00620300005a
:020000040000fa
:040140006203000056
:020000040000fa
:040144006203000052
:020000040000fa
:04014800620300004e
:020000040000fa
:04014c00620300004a
:020000040000fa
:040150006203000046
:020000040000fa
:040154006203000042
:020000040000fa
:04015800620300003e
:020000040000fa
:04015c00620300003a
:020000040000fa
:040160006203000036
:020000040000fa
:040164006203000032
:020000040000fa
:04016800620300002e
:020000040000fa
:04016c00620300002a
:020000040000fa
:040170006203000026
:020000040000fa
:040174006203000022
:020000040000fa
:04017800620300001e
:020000040000fa
:04017c00620300001a
:020000040000fa
:040180006203000016
:020000040000fa
:040184006203000012
:020000040000fa
:04018800620300000e
:020000040000fa
:04018c00620300000a
:020000040000fa
:040190006203000006
:020000040000fa
:040194006203000002
:020000040000fa
:0401980062030000fe
:020000040000fa
:04019c0062030000fa
:020000040000fa
:0401a00062030000f6
:020000040000fa
:0401a40062030000f2
:020000040000fa
:0401a80062030000ee
:020000040000fa
:0401ac0062030000ea
:020000040000fa
:0401b00062030000e6
:020000040000fa
:0401b40062030000e2
:020000040000fa
:0401b80062030000de
:020000040000fa
:0401bc0062030000da
:020000040000fa
:0401c00062030000d6
:020000040000fa
:0401c40062030000d2
:020000040000fa
:0401c80062030000ce
:020000040000fa
:0401cc0062030000ca
:020000040000fa
:0401d00062030000c6
:020000040000fa
:0401d40062030000c2
:020000040000fa
:0401d80062030000be
:020000040000fa
:0401dc0062030000ba
:020000040000fa
:0401e00062030000b6
:020000040000fa
:0401e40062030000b2
:020000040000fa
:0401e80062030000ae
:020000040000fa
:0401ec0062030000aa
:020000040000fa
:0401f00062030000a6
:020000040000fa
:0401f40062030000a2
:020000040000fa
:0401f800620300009e
:020000040000fa
:0401fc00620300009a
:020000040000fa
:040200006203000095
:020000040000fa
:040204006203000091
:020000040000fa
:04020800620300008d
:020000040000fa
:04020c006203000089
:020000040000fa
:040210006203000085
:020000040000fa
:040214006203000081
:020000040000fa
:04021800620300007d
:020000040000fa
:04021c006203000079
:020000040000fa
:040220006203000075
:020000040000fa
:040224006203000071
:020000040000fa
:04022800620300006d
:020000040000fa
:04022c006203000069
:020000040000fa
:040230006203000065
:020000040000fa
:040234006203000061
:020000040000fa
:04023800620300005d
:020000040000fa
:04023c006203000059
:020000040000fa
:040240006203000055
:020000040000fa
:040244006203000051
:020000040000fa
:04024800620300004d
:020000040000fa
:04024c006203000049
:020000040000fa
:040250006203000045
:020000040000fa
:040254006203000041
:020000040000fa
:04025800620300003d
:020000040000fa
:04025c006203000039
:020000040000fa
:040260006203000035
:020000040000fa
:040264006203000031
:020000040000fa
:04026800620300002d
:020000040000fa
:04026c006203000029
:020000040000fa
:040270006203000025
:020000040000fa
:040274006203000021
:020000040000fa
:04027800620300001d
:020000040000fa
:04027c006203000019
:020000040000fa
:040280006203000015
:020000040000fa
:10040000ef0321000eff2c000e0188000000000009
:10041000000020000000e000020032000001200087
:100420002002880014000700a80007000000e00078
:1004300003003a00600f2100010020000200370095
:100440000000200001002000810f70000100320038
:100450000f000700000020000000e0000200320052
:100460000000020000000000140f02000000000065
:100470000040da000000fe00200020000000e00044
:1004800002003200100020009001880000000600e9
:10049000a1028800800478000000eb001f003700f4
:1004a000e284440054a0b4009905ba00e2844400f8
:1004b00054a0b4009906ba00e284440054a0b400e9
:1004c0000006eb00476fde00fd07b200ae018800ba
:1004d000636ce10003003a000ad801000000eb0061
:1004e0000e003700606ce10008003a00004deb00a0
:1004f0000a05e800020039003420ec000af0a000f0
:100500008b05e900f9ff3e00040037006168e10057
:10051000010032000086eb000b00070019c7ba008b
:100520000e04e0001905ba0003003a000a00e000da
:10053000dbff3a0000000600fe07b200ae028800b2
:100540008a047800f5ff37000cd0a300e20f4d00bd
:100550001c00390089027800354dba000a05e80010
:10056000020039003420ec000af0a0008b05e900fd
:100570000f003200254dba000a05e80002003900dc
:100580003420ec000af0a0008b05e90008003200de
:100590000c00e0000600320015cdba000a05e800a4
:1005a000020039003420ec000af0a0008b05e900bd
:1005b0008984e80054a0b4000b00e000e2ff3a0098
:1005c000000006009902ba00055d78008b05e9007d
:1005d000f7ff3200c82ade00055d78008b05e900d0
:1005e000f3ff32000c00e000f1ff320019ddba0029
:1005f000eeff3700cc070400000000000000fa0006
:100600000108a9000080fa00004006003600f8004a
:10061000809fbe00829fbe00849fbe00869fbe005a
:100620000000fa000068a900a2030700b406070052
:100630000080fa004f03be004f02be004f01be0013
:100640004f00be003600f90000400600809fbe004b
:100650000000fa000368a90010808000218080005b
:1006600061004000e0804800108088002180880000
:100670000080fa004f00be0000400600801f780096
:100680000000fa0001a8a90030188000a0818800ad
:1006900040188000b081880020188000c081880048
:1006a00010188000d081880000188000e081880048
:1006b00010c0b3000df0b7000080fa004f007800c2
:1006c000004006000040da000000fe0000000500c7
:1006d00003f0a200889fbe008a9fbe008c1f780096
:1006e000180107001f0133006450e1004f00320081
:1006f0006420e1005200320003826c0007003b00de
:100700000905d0000306d000820f54000c065d00de
:1007100002003900020032008901780003067800e7
:100720008582550004003d000003fd008103fd00ab
:100730008502ea008b854200840f720002003b00b4
:1007400060001000e08018006011b8000005eb00a8
:100750007a28e1000a00390006007800c75ddd0054
:10076000f707b200878075002d0037008281710085
:100770000a017800610560008180d1000080d3000b
:100780008502e900f9ff3b00060440008784480029
:1007900002003b0060041400e0841c000988a300f0
:1007a000070032008a81710082817100610164005a
:1007b0008904d1000884d3008b05e80017003700b6
:1007c0000978a30013003a000b00e0001300340086
:1007d0008b05e9000804440089844c000a44740035
:1007e0000978a3000d003a000b00e0000700340078
:1007f0008b05e9000804440089844c0001003a009c
:100800000b0020000978a300f7ff32000001eb0085
:1008100002003700828171000a0178008e00070013
:100820000cf0a70001f0a000d70037006420e10021
:1008300002003a00838f6c00d70033000801be002d
:100840000200be00d0003700889fbe008a9fbe0015
:100850008c1f7800bb000700c200330003866c00c9
:100860006450e1002e0032006420e10033003200c9
:100870006150e1002f0032006120e10031003200c0
:1008800085855500eb07b000090020000804200012
:10089000050037000804440089844c000a00310038
:1008a0000603430087834b000001530081815b00f6
:1008b000f8ff33000203be000800a0000804440053
:1008c00089844c00f6ff3900c639dd0083017300ce
:1008d00001003200130020008904d1000884d300f5
:1008e0000998a300050032000800a7000300a0003b
:1008f0008904d1000884d3008b05e8008904d10065
:100900000884d3000001eb000281d20052000700ee
:1009100001f0a1000cf0a70001f0a0009a00370040
:100920006420e1009c0032000801be000200be000d
:10093000f7ff37006120e100970032006000b80047
:10094000f3ff37000000200001f82700f0ff370018
:1009500014002000c7003700f4ff2f00c500370047
:100960000001be00620007000470a70003f0a100b0
:100970006509b100160032000d0035006828e1005d
:1009800006003500f0ff2f00f1ff27000300e00014
:1009900013003b000100280000000500000040009b
:1009a000818048008502e900fcff3a00080037001a
:1009b000f88f420002003c008000eb0000000500c0
:1009c0008100d1000080d3008502e800fcff3a00de
:1009d0000300e00002003b0060001000e08018000f
:1009e000000006000001be00410007000470a700df
:1009f00003f0a10003f8a30013003a006509b10059
:100a000010003200090035006928e10002003500bd
:100a1000010028000000050000004000818048001f
:100a20008502e900fcff3a0000000600f88f420052
:100a3000050035008100d1000080d3008502e80068
:100a4000fcff3a00000006008000eb0000000500fb
:100a50006011b800a20037008100200061805500bd
:100a60000b003d000b00200061fe2f000100e100a3
:100a70001d00340082817100610164008904d1008d
:100a80000884d3000000e800faff3a00710020005b
:100a90006100640003007000020060000900320081
:100aa00061044400e0844c000988a5000500320080
:100ab0008b05e8006808e10002003a008904d100d3
:100ac0000884d300f20f20000258e10005003d0029
:100ad000c75ddd00f907b200898075000800780065
:100ae000000006000bf827008b00780000000500ce
:100af000c70ade00f107b200f50fb20008003200ad
:100b0000e1cf4200020032000170a0002400050085
:100b1000810f700001003200040805004400050048
:100b2000810f700002003a00140005008502e90000
:100b30000000400081c04800fcff3b000170a000a5
:100b4000240005000004be00e9ff07000003be000a
:100b50000405be000200be00e5ff0700844f7500db
:100b6000000006000200be006450e10005003600ef
:100b70006420e100020036000968a30001003a0089
:100b80000800be000160a0004f0678004f05be00bf
:100b90004f04be0000000600f0ff2f00f1ff270009
:100ba000f9ff3700889fbe008a9fbe008c1f780027
:100bb000e4ff0700ebff330003866c006450e100a4
:100bc000240032006420e100270032006150e1007f
:100bd000220032006120e100210032008b854200ba
:100be000eb07b1000134b800003ab8000804420035
:100bf00089844a00013ab8000030b800888040007b
:100c000009014a00040033000000400081804800d0
:100c1000020149008b05e900c909dd00830170006c
:100c20000100320013002000c814de004814dd006b
:100c30004709de001200b200c808de000884700018
:100c400085ff070001f0a1000cf0a70001f0a00053
:100c5000cdff37006120e100cfff32000801be0068
:100c60000200be00f7ff37006150e100fcff3a00d0
:100c7000c9ff3700889fbe008a9fbe00841f78008e
:100c8000b0ff07004f00780011003300f0ff2f0085
:100c9000838f6c0006003b00040565000a00a70076
:100ca0000800370009f0a6001000200008003700f7
:100cb000820f5400838f5c00030039001000200075
:100cc00001003e000000200009f0a7000000ea003b
:100cd0004f05be004f04be000000e000000006000b
:100ce000889fbe008a9fbe000082700004027100cf
:100cf00004827100260032000004be000200be0023
:100d00006011b8006b092000950220000182cf001d
:100d10000a0039000541b1000082cf000700390008
:100d20000541b1000982cf00040039000541b1003e
:100d30000882cf00010039000541b1000542520090
:100d4000120032000a003b008281710061016400e0
:100d50008100d1000080d3008984d3000884d300af
:100d60008b05e8000442e800f7ff3a00070037006f
:100d70000804440089844c00000048008180480039
:100d80008b05e9000442e900f9ff3a0032ff070051
:0c0d90004f05be004f04be00000006002e
:020000040000fa
:100d9c000000fa0006d0bf000080fb00cf80de0010
:100dac001201200003002000820f5000838f580096
:100dbc0072003e0000060100110037001a003700d7
:100dcc001c003700260037002800370031003700a0
:100ddc00330037003c0037003e0037004800370036
:100dec004a003700540037006400370063003700b6
:100dfc006200370061003700520037005c0037009a
:100e0c000230ef000430ef000001eb006000b8008e
:100e1c004c020700120020006000b80049020700d5
:100e2c0010c0b30006f0b70020c0b30006f0b70046
:100e3c00540037000001eb0000002000011a2c00c8
:100e4c00400207001200200000002000011a2400bc
:100e5c003c02070030c0b30006f0b7004900370071
:100e6c00c07c200000000100460037000001eb00b0
:100e7c000000200001172c00320207001200200095
:100e8c006000b8002f02070050c0b30006f0b70096
:100e9c003c003700c07c2000000001003900370006
:100eac000001eb006000b8002602070012002000d1
:100ebc0000002000011724002202070070c0b300bc
:100ecc0006f0b7002f003700c07c200000000100a6
:100edc002c0037000001eb000000200001172c0053
:100eec0018020700120020000000200001172c003f
:100efc001402070090c0b30006f0b70021003700c1
:100f0c00c07c2000000001001e0037000001eb0037
:100f1c0000002000011724000a0207001200200024
:100f2c00000020000117240006020700b0c0b30027
:100f3c0006f0b70013003700c07c20000000010051
:100f4c00100037000001eb00000020000117240006
:100f5c00fc010700120020000000200001172400f3
:100f6c00f801070010c1b30006f0b7000500370008
:100f7c00c07c200000000100020037000670ef006a
:100f8c00000000000080fa00000006000000fa00db
:100f9c00881f78000870ef0020818000318180006c
:100fac0018c0b300020020000317240065fe0700e0
:100fbc000000e000010035000044eb000804e000f4
:100fcc000300320008d0bf007040400008f0b700aa
:100fdc00008180001181800018c0b3000200200045
:100fec000319240057fe07000000e0000100350043
:100ffc000044eb000804e0000300320008d0bf00fe
:10100c006840400008f0b7004081800051818000aa
:10101c0018c0b30002002000031a240049fe070088
:10102c000000e000010035000044eb000804e00083
:10103c000300320008d0bf006440400008f0b70045
:10104c00608180007181800018c0b3000200200014
:10105c00031924003bfe07000000e00001003500ee
:10106c000044eb000804e0000300320008d0bf008d
:10107c0000c0e80008f0b7008081800091818000fa
:10108c0018c0b30002002000031724002dfe070037
:10109c000000e000010035000044eb000804e00013
:1010ac000300320008d0bf000040e80008f0b70091
:1010bc0008d0bf000080fb00cf80de00f2012000d2
:1010cc0003002000820f5000838f580081003e00e7
:1010dc00000601001f0037002100370023003700f5
:1010ec002500370027003700290037002b00370078
:1010fc002d0037002f003700310037003300370048
:10110c003500370037003700390037003b00370017
:10111c003d0037003f0037004100370043003700e7
:10112c004500370047003700490037004b003700b7
:10113c004d0037004f003700510037005300370087
:10114c005500370057003700590037005b00370057
:10115c005d00370020c0b30007f0b7005f00370018
:10116c0040c0b30007f0b7005c00370040c0b300cc
:10117c0007f0b7005900370040c0b30007f0b700c4
:10118c005600370000c1b30007f0b700530037001a
:10119c0080c0b30007f0b7005000370080c0b30028
:1011ac0007f0b7004d00370080c0b30007f0b70060
:1011bc004a00370060c0b30007f0b70047003700a3
:1011cc0060c0b30007f0b7004400370000c1b300a3
:1011dc0007f0b7004100370040c0b30007f0b7007c
:1011ec003e003700a0c0b30007f0b7003b0037004b
:1011fc00a0c0b30007f0b7003800370080c0b300c0
:10120c0007f0b7003500370080c0b30007f0b70017
:10121c003200370060c0b30007f0b7002f00370072
:10122c0080c0b30007f0b7002c00370040c0b300fb
:10123c0007f0b7002900370040c0b30007f0b70033
:10124c0026003700a0c0b30007f0b700230037001a
:10125c0000c1b30007f0b7002000370080c0b30016
:10126c0007f0b7001d00370080c0b30007f0b700cf
:10127c001a00370060c0b30007f0b7001700370042
:10128c0060c0b30007f0b70014003700a0c0b30073
:10129c0007f0b7001100370000c1b30007f0b7002a
:1012ac000e003700a0c0b30007f0b7000b003700ea
:1012bc00a0c0b30007f0b70008003700a0c0b3000f
:1012cc0007f0b7000500370000c1b30007f0b70006
:1012dc00020037000670ef000000000007d0bf00ce
:1012ec008080fb0006d0bf000080fb000000e900fe
:1012fc00808f50000200320007d0bf0006f0b7000c
:10130c004f0478000080fa00000006000000fa008c
:10131c001160800080ff2f0000806000106088004a
:10132c0000fa20002060880023aca800238ca800c1
:10133c0011618000f03f2f000080600000a0a00031
:10134c00106188003000200020618800c3aca80028
:10135c00c38ca80011668000f03f2f000080600055
:10136c0000a0a000106688003000200020668800d5
:10137c0001eca8000080fa00000006000600fa004c
:10138c00881f7800008fbe00220798002e00900066
:10139c00e10f50001f003a0018c0b3006011b800f4
:1013ac001e0078009e00900068fd07000000e00021
:1013bc0001003d000044eb000804e0000400320092
:1013cc0023cca90015eea80023eca80003003700dd
:1013dc0023eca90015cea80023cca8001e00780091
:1013ec009e00900006020700a0808800b180880053
:1013fc00a0808000b1808000020020000322240025
:10140c00e5fd0700fe01070073fd070000007800f2
:10141c00306188002e0090000000e0001f003a00b0
:10142c0018c0b3006011b8001e0078009e00900038
:10143c0046fd07000000e00001003d000044eb0009
:10144c000804e00004003200c3cca90024eea8007c
:10145c00c3eca80003003700c3eca90024cea800fd
:10146c00c3cca8001e0078009e009000e401070089
:10147c00e0808800f1808800e0808000f1808000ae
:10148c000200200003222400c3fd0700dc0107003a
:10149c0051fd070000007800306688004f0478008a
:1014ac000080fa00000006000000fa00889fbe00d1
:1014bc008a9fbe00e4808000f5808000c0808000a0
:1014cc00d180800018c0b3000001be000400be0033
:1014dc001cfd07000000e000010035000044eb009b
:1014ec000804e0000e003200c8808000d980800023
:1014fc00ea808000fb808000508080008000eb0040
:10150c0050fd07000001be000a00be006efc070083
:10151c000801be00e8010700e0808800f180880027
:10152c00e4808000f5808000c0808000d180800045
:10153c0018c0b3000001be000400be0003fd07008c
:10154c000000e00001003c000044eb000804e00057
:10155c000e003200c8808000d9808000ea808000b4
:10156c00fb808000508080008000eb0035fd070080
:10157c000001be000a00be0052fc07000801be00bc
:10158c00b5010700e0808800f1808800e0808000d1
:10159c00f180800018c0b3006011b800ebfc0700ac
:1015ac000000e00001003c000044eb000804e000f7
:1015bc0004003200c3cca90024eea800c3eca800a0
:1015cc0003003700c3eca90024cea800c3cca800ac
:1015dc00e0808000f180800089010700020020007b
:1015ec00032224006cfd0700fbfc070000007800c0
:1015fc0030668800a4808000b580800080808000e8
:10160c009180800018c0b3000001be000400be0031
:10161c00ccfc07000000e000010035000044eb00aa
:10162c000804e0000e003200888080009980800061
:10163c00aa808000bb808000508080008000eb007e
:10164c0000fd07000001be000a00be001efc0700e2
:10165c000801be0098010700a0808800b1808800b6
:10166c00a4808000b5808000808080009180800004
:10167c0018c0b3000001be000400be00b3fc07009c
:10168c000000e00001003c000044eb000804e00016
:10169c000e0032008880800099808000aa80800033
:1016ac00bb808000508080008000eb00e5fc0700d0
:1016bc000001be000a00be0002fc07000801be00cb
:1016cc0065010700a0808800b1808800a0808000a0
:1016dc00b180800018c0b3006011b8009bfc0700fb
:1016ec000000e00001003c000044eb000804e000b6
:1016fc000400320023cca90015eea80023eca800ae
:10170c000300370023eca90015cea80023cca800b9
:10171c00a0808000b1808000390107000200200009
:10172c00032224001cfd0700abfc0700000078001e
:10173c00306188004f05be004f04be000080fa00e7
:10174c00000006000600fa00008fbe002207980079
:10175c002e0090000000e00004003a001e0178000a
:10176c009e019000c2808800d38088002e009000db
:10177c00e10f500004003a001e0178009e01900019
:10178c0082808800938088000080fa0000000600a8
:10179c000000fa0013e1a90011e1a9001061a800f2
:1017ac001021a90081088000f0fc2f00008060004f
:1017bc00800888000a21ef000621ef00404c200031
:1017cc007008880000402b006008880021428000cf
:1017dc0080ff2f00008060000000a00020428800e5
:1017ec000108a9002108a80011e1a8000080fa0056
:1017fc00000006000000fa0005e1a900000020002e
:10180c00a1472400060007000421a9000068a900d4
:10181c002068a80005e1a8000080fa00000006007e
:10182c000400fa00881f7800008fbe002108800099
:10183c00f0fc2f0000806000200888001e0178005a
:10184c009e0190000068290081c12400fbfb070069
:10185c0018c0b30002f02f00f37724003bfc070004
:10186c000000e00001003c000044eb000804e00034
:10187c005400320021088000f0fc2f000080600032
:10188c000040a000200888001e0178009e019000f6
:10189c000068290081c12400e8fb07000200200039
:1018ac0003102400e5fb070018c0b30002f02f0062
:1018bc00f377240025fc07000000e00001003c0049
:1018cc000044eb000804e0003200320021088000e4
:1018dc00f0fc2f00008060000050a0002008880061
:1018ec001e0178009e0190000068290081c124002f
:1018fc00d2fb07000200200003282400cffb0700c6
:10190c0018c0b30002f02f00f37724000ffc07007f
:10191c000000e00001003c000044eb000804e00083
:10192c00100032002108800000032000010070002c
:10193c00200888001e0178009e0190000068290094
:10194c0081c12400bdfb07000200200003382400e5
:10195c00bafb0700fffb07000000780010088800a6
:10196c00200037001e0178009e01900000682900bd
:10197c0081c12400b1fb07000200200003282400d1
:10198c00aefb0700f3fb070000007800100888008e
:10199c00140037001e0178009e0190000068290099
:1019ac0081c12400a5fb07000200200003102400c5
:1019bc00a2fb0700e7fb0700000078001008880076
:1019cc00080037001e0178009e0190000068290075
:1019dc0081c1240099fb0700defb070000007800a2
:1019ec00100888004f0478000080fa000000060000
:1019fc000000fa001fe1a90000002000a14724000c
:101a0c00060007001e21a9000368a9002368a8008e
:101a1c001fe1a8000080fa00000006000400fa0094
:101a2c00881f7800008fbe00f1088000f0fc2f00aa
:101a3c0000806000f00888001e0178009e01900074
:101a4c000068290081c124007cfb070018c0b3008a
:101a5c0002f02f00f3772400bcfb07000000e0002d
:101a6c0001003c000044eb000804e000540032008c
:101a7c00f1088000f0fc2f00008060000040a00006
:101a8c00f00888001e0178009e0190000068290073
:101a9c0081c1240069fb0700020020000310240010
:101aac0066fb070018c0b30002f02f00f377240088
:101abc00a6fb07000000e00001003c000044eb0026
:101acc000804e00032003200f1088000f0fc2f0026
:101adc00008060000050a000f00888001e01780013
:101aec009e0190000068290081c1240053fb07006f
:101afc00020020000328240050fb070018c0b3008c
:101b0c0002f02f00f377240090fb07000000e000a8
:101b1c0001003c000044eb000804e000100032001f
:101b2c00f10880000003200001007000f00888001c
:101b3c001e0178009e0190000068290081c12400dc
:101b4c003efb070002002000033824003bfb07008b
:101b5c0080fb070000007800d008880020003700c8
:101b6c001e0178009e0190000068290081c12400ac
:101b7c0032fb070002002000032824002ffb070083
:101b8c0074fb070000007800d008880014003700b0
:101b9c001e0178009e0190000068290081c124007c
:101bac0026fb0700020020000310240023fb070083
:101bbc0068fb070000007800d00888000800370098
:101bcc001e0178009e0190000068290081c124004c
:101bdc001afb07005ffb070000007800d0088800a4
:101bec004f0478000080fa00000006000000fa00a4
:101bfc000230ef000430ef000080fa000000060015
:101c0c000400fa00881f7800008fbe0018c0b300d3
:101c1c006011b8001e0078009e0090004bfb07007e
:101c2c000000e00001003d000044eb000804e0006f
:101c3c00030032001e0078009e0090000300370065
:101c4c001e0078009e00900001f0a2004f04780066
:101c5c000080fa00000006000800fa00881f7800d7
:101c6c00008fbe00220798003307980018c0b300fd
:101c7c002e019000be0190001e0078009e00900086
:101c8c0032fb07000000e00001003c000044eb00c8
:101c9c000804e000030032001e0078009e00900053
:101cac00020037002e009000be0090004f04780018
:101cbc000080fa00000006000800fa00881f780077
:101ccc00008fbe00220798003307980018c0b3009d
:101cdc002e019000be0190001e0078009e00900026
:101cec0018fb07000000e000010035000044eb0089
:101cfc000804e000030032001e0078009e009000f3
:101d0c00020037002e009000be0090004f047800b7
:101d1c000080fa00000006000c00fa00881f780012
:101d2c00008fbe00220798003307980044079800e4
:101d3c005507980018c0b3004e019000de019000ca
:101d4c001e0078009e00900000fb07000000e000e1
:101d5c0001003c000044eb000804e00004003200e9
:101d6c004e019000de019000028fbe000e00370085
:101d7c0018c0b3002e019000be0190001e00780028
:101d8c009e009000effa07000000e0000100350013
:101d9c000044eb000804e000030032002e01900028
:101dac00be019000028fbe001e0078009e009000c5
:101dbc004f0478000080fa00000006000400fa00ce
:101dcc00008fbe00b2fd2000930424001e0078009a
:101ddc009e00900099fa0700020020004333240073
:101dec006dfb07000080fa00000006000400fa00fa
:101dfc00008fbe00b2fd2000930424001e0078006a
:101e0c009e00900064fb0700020020004333240076
:101e1c008afa07000080fa00000006001800fa0099
:101e2c00c40007000201070038fd07007700070017
:101e3c0057fe07006ffe07000000200081242400dd
:101e4c00208188003181880000002000812424003a
:101e5c00008188001181880000002000812424006a
:101e6c0040818800518188000000200081242400da
:101e7c00608188007181880000002000812424008a
:101e8c0080818800918188006000b800c080880043
:101e9c00d18088006000b800808088009180880024
:101eac009c0007000004e000560032009d00070073
:101ebc0094000700100798000000eb00000f78005a
:101ecc00160037001e007800000040009e009000b5
:101edc0000804000100078008000eb00d9fa070069
:101eec0032332300330524002bfb070002002000b3
:101efc000358240051fa0700d2cc2c00c304240050
:101f0c0025fb07001e0178004211dd006401410031
:101f1c00020147000089be001e0fe8001e00780079
:101f2c00e40f5000e7ff34002e009000be0090003c
:101f3c000001be0000002000812024003ffa0700b1
:101f4c0002002000030a2400def90700208188002b
:101f5c00318188004e009000de0090000001be0030
:101f6c00000020008120240034fa07000200200029
:101f7c00030a2400d3f9070000818800118188002e
:101f8c006e009000fe0090000001be0000002000da
:101f9c008120240029fa070002002000030a2400f3
:101fac00c8f9070040818800518188000e08900014
:101fbc009e0890000001be0000002000812024003b
:101fcc001efa070002002000030a2400bdf90700d6
:101fdc0060818800718188002e089000be089000f6
:101fec000001be00000020008120240013fa07002d
:101ffc0002002000030a2400b2f907008081880047
:10200c009181880062fb0700a5ff37000000fa00f1
:10201c0021e3a9002143a80001198000f0cf2f0073
:10202c0000806000001988002043a900011980007d
:10203c00000e2000010070000019880011198000aa
:10204c00f0ff210000806000101988002343a800d5
:10205c0011198000f0cf2f0000806000101988004b
:10206c001119800030f82f00008060000040a000a3
:10207c00101988002203a9002223a90025e3a90036
:10208c00f0c0b30024e3b70021198000f00f2e003c
:10209c008080600000f02000010070002019880092
:1020ac003303a9004feea8006f2ea8002f6ea800d6
:1020bc002e0ea8001e2ea80031e3a8003063a80045
:1020cc0030c3a8003163a8002e03a800411980007a
:1020dc0000fc2f00008060004019880028e3a90054
:1020ec0001a8a90021a8a80021e3a8000080fa00fb
:1020fc00000006000000fa002023a8000080fa006f
:10210c00000006000000fa00400321000080fa00e5
:10211c00000006000000fa000dd0bf000080fa009d
:10212c00000006000000fa000d70ef000080fa00bd
:10213c00000006000000fa00f0032000303a88008e
:10214c00213a8000f0f32f0000806000203a8800d4
:10215c00213a800000fe2f00008060000000a000eb
:10216c00203a88001200200080072000a1092000de
:10217c0033742000804978008149780082497800c6
:10218c00103a8000000178000200a00060042000da
:10219c007105200023742000804978008149780063
:1021ac008249780000000000113a800000002700ee
:1021bc008080600000002100808f5000faff3a0000
:1021cc0000000000113a8000000220000080600036
:1021dc000000e000fbff32000080fa000000060067
:020000040000fa
:1021ec000010000006000000800000000e1000002f
:1021fc0026000000800000000a1000000200000011
:10220c008200000005000000341000000a000000ed
:10221c00800000000c100000020000008000000094
:10222c000610000004000000800000000000000008
:020000040000fa
:10223c000000fa000e2eef001e2eef002e2eef00e7
:10224c003e2eef004e2eef005e2eef006e2eef00b6
:10225c00214ea90060cea90060eea90011cea90004
:10226c0011eea90020cea90020eea9000080fa00f2
:04227c000000060058
:020000040000fa
:02000004000af0
:04afe000cfff00009f
:020000040000fa
:02000004000af0
:04afe400ffff00006b
:020000040000fa
:02000004000af0
:04afe8007fff0000e7
:020000040000fa
:02000004000af0
:04afec005fff000003
:020000040000fa
:02000004000af0
:04aff00038ff000026
:020000040000fa
:02000004000af0
:04aff400ffff00005b
:00000001FF
